{
  "contractName": "EventFactory",
  "abi": [
    {
      "anonymous": false,
      "inputs": [
        {
          "indexed": false,
          "internalType": "contract Event",
          "name": "_address",
          "type": "address"
        },
        {
          "indexed": false,
          "internalType": "string",
          "name": "_name",
          "type": "string"
        },
        {
          "indexed": false,
          "internalType": "uint256",
          "name": "_ticketPrice",
          "type": "uint256"
        },
        {
          "indexed": false,
          "internalType": "string",
          "name": "location",
          "type": "string"
        },
        {
          "indexed": false,
          "internalType": "uint256",
          "name": "startDate",
          "type": "uint256"
        },
        {
          "indexed": false,
          "internalType": "uint256",
          "name": "endDate",
          "type": "uint256"
        },
        {
          "indexed": true,
          "internalType": "string",
          "name": "_filterName",
          "type": "string"
        },
        {
          "indexed": true,
          "internalType": "string",
          "name": "_filterLocation",
          "type": "string"
        }
      ],
      "name": "eventCreated",
      "type": "event"
    },
    {
      "constant": true,
      "inputs": [
        {
          "internalType": "uint256",
          "name": "",
          "type": "uint256"
        }
      ],
      "name": "deployedEvents",
      "outputs": [
        {
          "internalType": "contract Event",
          "name": "",
          "type": "address"
        }
      ],
      "payable": false,
      "stateMutability": "view",
      "type": "function"
    },
    {
      "constant": false,
      "inputs": [
        {
          "internalType": "string",
          "name": "_name",
          "type": "string"
        },
        {
          "internalType": "uint256",
          "name": "_start",
          "type": "uint256"
        },
        {
          "internalType": "uint256",
          "name": "_end",
          "type": "uint256"
        },
        {
          "internalType": "uint256",
          "name": "supply",
          "type": "uint256"
        },
        {
          "internalType": "uint256",
          "name": "_ticketPrice",
          "type": "uint256"
        },
        {
          "internalType": "string",
          "name": "_description",
          "type": "string"
        },
        {
          "internalType": "string",
          "name": "_location",
          "type": "string"
        }
      ],
      "name": "createEvent",
      "outputs": [],
      "payable": false,
      "stateMutability": "nonpayable",
      "type": "function"
    },
    {
      "constant": true,
      "inputs": [],
      "name": "getDeployedEvents",
      "outputs": [
        {
          "internalType": "contract Event[]",
          "name": "",
          "type": "address[]"
        }
      ],
      "payable": false,
      "stateMutability": "view",
      "type": "function"
    }
  ],
  "bytecode": "0x608060405234801561001057600080fd5b5061432a806100206000396000f3fe60806040523480156200001157600080fd5b5060043610620000465760003560e01c80633812783e146200004b578063eade22f614620000ae578063efb9a1b2146200011f575b600080fd5b620000556200033c565b6040518080602001828103825283818151815260200191508051906020019060200280838360005b838110156200009a5780820151818401526020810190506200007d565b505050509050019250505060405180910390f35b620000dd60048036036020811015620000c657600080fd5b8101908080359060200190929190505050620003cc565b604051808273ffffffffffffffffffffffffffffffffffffffff1673ffffffffffffffffffffffffffffffffffffffff16815260200191505060405180910390f35b6200033a600480360360e08110156200013757600080fd5b81019080803590602001906401000000008111156200015557600080fd5b8201836020820111156200016857600080fd5b803590602001918460018302840111640100000000831117156200018b57600080fd5b91908080601f016020809104026020016040519081016040528093929190818152602001838380828437600081840152601f19601f82011690508083019250505050505050919291929080359060200190929190803590602001909291908035906020019092919080359060200190929190803590602001906401000000008111156200021757600080fd5b8201836020820111156200022a57600080fd5b803590602001918460018302840111640100000000831117156200024d57600080fd5b91908080601f016020809104026020016040519081016040528093929190818152602001838380828437600081840152601f19601f82011690508083019250505050505050919291929080359060200190640100000000811115620002b157600080fd5b820183602082011115620002c457600080fd5b80359060200191846001830284011164010000000083111715620002e757600080fd5b91908080601f016020809104026020016040519081016040528093929190818152602001838380828437600081840152601f19601f82011690508083019250505050505050919291929050505062000409565b005b60606001805480602002602001604051908101604052809291908181526020018280548015620003c257602002820191906000526020600020905b8160009054906101000a900473ffffffffffffffffffffffffffffffffffffffff1673ffffffffffffffffffffffffffffffffffffffff168152602001906001019080831162000377575b5050505050905090565b60018181548110620003da57fe5b906000526020600020016000915054906101000a900473ffffffffffffffffffffffffffffffffffffffff1681565b6000809054906101000a900460ff16156200042357600080fd5b600033905060008189898987878b8b604051620004409062000891565b808973ffffffffffffffffffffffffffffffffffffffff1673ffffffffffffffffffffffffffffffffffffffff16815260200180602001888152602001878152602001806020018060200186815260200185815260200184810384528b818151815260200191508051906020019080838360005b83811015620004d1578082015181840152602081019050620004b4565b50505050905090810190601f168015620004ff5780820380516001836020036101000a031916815260200191505b50848103835288818151815260200191508051906020019080838360005b838110156200053a5780820151818401526020810190506200051d565b50505050905090810190601f168015620005685780820380516001836020036101000a031916815260200191505b50848103825287818151815260200191508051906020019080838360005b83811015620005a357808201518184015260208101905062000586565b50505050905090810190601f168015620005d15780820380516001836020036101000a031916815260200191505b509b505050505050505050505050604051809103906000f080158015620005fc573d6000803e3d6000fd5b50905060018190806001815401808255809150509060018203906000526020600020016000909192909190916101000a81548173ffffffffffffffffffffffffffffffffffffffff021916908373ffffffffffffffffffffffffffffffffffffffff16021790555050826040518082805190602001908083835b602083106200069b578051825260208201915060208101905060208303925062000676565b6001836020036101000a0380198251168184511680821785525050505050509050019150506040518091039020896040518082805190602001908083835b60208310620006fe5780518252602082019150602081019050602083039250620006d9565b6001836020036101000a03801982511681845116808217855250505050505090500191505060405180910390207f6ff0bb589eb87a40aa0cfd5832c5c22dc1c626b86daae2eaac21b03a77302942838c89888e8e604051808773ffffffffffffffffffffffffffffffffffffffff1673ffffffffffffffffffffffffffffffffffffffff1681526020018060200186815260200180602001858152602001848152602001838103835288818151815260200191508051906020019080838360005b83811015620007dc578082015181840152602081019050620007bf565b50505050905090810190601f1680156200080a5780820380516001836020036101000a031916815260200191505b50838103825286818151815260200191508051906020019080838360005b838110156200084557808201518184015260208101905062000828565b50505050905090810190601f168015620008735780820380516001836020036101000a031916815260200191505b509850505050505050505060405180910390a3505050505050505050565b613a5680620008a08339019056fe60806040523480156200001157600080fd5b5060405162003a5638038062003a5683398181016040526101008110156200003857600080fd5b8101908080519060200190929190805160405193929190846401000000008211156200006357600080fd5b838201915060208201858111156200007a57600080fd5b82518660018202830111640100000000821117156200009857600080fd5b8083526020830192505050908051906020019080838360005b83811015620000ce578082015181840152602081019050620000b1565b50505050905090810190601f168015620000fc5780820380516001836020036101000a031916815260200191505b506040526020018051906020019092919080519060200190929190805160405193929190846401000000008211156200013457600080fd5b838201915060208201858111156200014b57600080fd5b82518660018202830111640100000000821117156200016957600080fd5b8083526020830192505050908051906020019080838360005b838110156200019f57808201518184015260208101905062000182565b50505050905090810190601f168015620001cd5780820380516001836020036101000a031916815260200191505b5060405260200180516040519392919084640100000000821115620001f157600080fd5b838201915060208201858111156200020857600080fd5b82518660018202830111640100000000821117156200022657600080fd5b8083526020830192505050908051906020019080838360005b838110156200025c5780820151818401526020810190506200023f565b50505050905090810190601f1680156200028a5780820380516001836020036101000a031916815260200191505b506040526020018051906020019092919080519060200190929190505050866040518060400160405280600981526020017f435259505449434b5300000000000000000000000000000000000000000000008152508181620002f96301ffc9a760e01b6200042d60201b60201c565b620003116380ac58cd60e01b6200042d60201b60201c565b6200032963780e9d6360e01b6200042d60201b60201c565b81600990805190602001906200034192919062000536565b5080600a90805190602001906200035a92919062000536565b5062000373635b5e139f60e01b6200042d60201b60201c565b5050505086600c90805190602001906200038f92919062000536565b5085600d8190555084600f8190555080601481905550816010819055508360129080519060200190620003c492919062000536565b5087601560006101000a81548173ffffffffffffffffffffffffffffffffffffffff021916908373ffffffffffffffffffffffffffffffffffffffff16021790555082601190805190602001906200041e92919062000536565b505050505050505050620005e5565b63ffffffff60e01b817bffffffffffffffffffffffffffffffffffffffffffffffffffffffff19161415620004ca576040517f08c379a000000000000000000000000000000000000000000000000000000000815260040180806020018281038252601c8152602001807f4552433136353a20696e76616c696420696e746572666163652069640000000081525060200191505060405180910390fd5b6001600080837bffffffffffffffffffffffffffffffffffffffffffffffffffffffff19167bffffffffffffffffffffffffffffffffffffffffffffffffffffffff1916815260200190815260200160002060006101000a81548160ff02191690831515021790555050565b828054600181600116156101000203166002900490600052602060002090601f016020900481019282601f106200057957805160ff1916838001178555620005aa565b82800160010185558215620005aa579182015b82811115620005a95782518255916020019190600101906200058c565b5b509050620005b99190620005bd565b5090565b620005e291905b80821115620005de576000816000905550600101620005c4565b5090565b90565b61346180620005f56000396000f3fe6080604052600436106101cd5760003560e01c806351958a56116100f757806395d89b4111610095578063c24a0f8b11610064578063c24a0f8b14610c48578063c87b56dd14610c73578063e985e9c514610d27578063fb6c953714610db0576101cd565b806395d89b4114610a1b578063a22cb46514610aab578063b88d4fde14610b08578063b948348c14610c1a576101cd565b80636352211e116100d15780636352211e1461085457806370a08231146108cf5780637284e416146109345780638da5cb5b146109c4576101cd565b806351958a56146106e05780635cc08cec1461073b5780635d036d1a146107e1576101cd565b806318160ddd1161016f57806342842e0e1161013e57806342842e0e1461055b57806348a0d754146105d65780634f6ccce714610601578063516f279e14610650576101cd565b806318160ddd1461042f5780631e638f2e1461045a57806323b872dd146104715780632f745c59146104ec576101cd565b8063095ea7b3116101ab578063095ea7b31461034f5780630b97bc86146103aa5780630ed5a933146103d55780631209b1f614610404576101cd565b806301ffc9a7146101d257806306fdde0314610244578063081812fc146102d4575b600080fd5b3480156101de57600080fd5b5061022a600480360360208110156101f557600080fd5b8101908080357bffffffffffffffffffffffffffffffffffffffffffffffffffffffff19169060200190929190505050610dc7565b604051808215151515815260200191505060405180910390f35b34801561025057600080fd5b50610259610e2e565b6040518080602001828103825283818151815260200191508051906020019080838360005b8381101561029957808201518184015260208101905061027e565b50505050905090810190601f1680156102c65780820380516001836020036101000a031916815260200191505b509250505060405180910390f35b3480156102e057600080fd5b5061030d600480360360208110156102f757600080fd5b8101908080359060200190929190505050610ecc565b604051808273ffffffffffffffffffffffffffffffffffffffff1673ffffffffffffffffffffffffffffffffffffffff16815260200191505060405180910390f35b34801561035b57600080fd5b506103a86004803603604081101561037257600080fd5b81019080803573ffffffffffffffffffffffffffffffffffffffff16906020019092919080359060200190929190505050610f67565b005b3480156103b657600080fd5b506103bf611140565b6040518082815260200191505060405180910390f35b3480156103e157600080fd5b506103ea611146565b604051808215151515815260200191505060405180910390f35b34801561041057600080fd5b5061041961115d565b6040518082815260200191505060405180910390f35b34801561043b57600080fd5b50610444611163565b6040518082815260200191505060405180910390f35b34801561046657600080fd5b5061046f611170565b005b34801561047d57600080fd5b506104ea6004803603606081101561049457600080fd5b81019080803573ffffffffffffffffffffffffffffffffffffffff169060200190929190803573ffffffffffffffffffffffffffffffffffffffff1690602001909291908035906020019092919050505061122f565b005b3480156104f857600080fd5b506105456004803603604081101561050f57600080fd5b81019080803573ffffffffffffffffffffffffffffffffffffffff1690602001909291908035906020019092919050505061129e565b6040518082815260200191505060405180910390f35b34801561056757600080fd5b506105d46004803603606081101561057e57600080fd5b81019080803573ffffffffffffffffffffffffffffffffffffffff169060200190929190803573ffffffffffffffffffffffffffffffffffffffff1690602001909291908035906020019092919050505061135d565b005b3480156105e257600080fd5b506105eb61137d565b6040518082815260200191505060405180910390f35b34801561060d57600080fd5b5061063a6004803603602081101561062457600080fd5b8101908080359060200190929190505050611383565b6040518082815260200191505060405180910390f35b34801561065c57600080fd5b50610665611403565b6040518080602001828103825283818151815260200191508051906020019080838360005b838110156106a557808201518184015260208101905061068a565b50505050905090810190601f1680156106d25780820380516001836020036101000a031916815260200191505b509250505060405180910390f35b3480156106ec57600080fd5b506107396004803603604081101561070357600080fd5b81019080803573ffffffffffffffffffffffffffffffffffffffff169060200190929190803590602001909291905050506114a1565b005b34801561074757600080fd5b5061078a6004803603602081101561075e57600080fd5b81019080803573ffffffffffffffffffffffffffffffffffffffff1690602001909291905050506115f2565b6040518080602001828103825283818151815260200191508051906020019060200280838360005b838110156107cd5780820151818401526020810190506107b2565b505050509050019250505060405180910390f35b3480156107ed57600080fd5b5061083a6004803603604081101561080457600080fd5b81019080803573ffffffffffffffffffffffffffffffffffffffff16906020019092919080359060200190929190505050611653565b604051808215151515815260200191505060405180910390f35b34801561086057600080fd5b5061088d6004803603602081101561087757600080fd5b8101908080359060200190929190505050611754565b604051808273ffffffffffffffffffffffffffffffffffffffff1673ffffffffffffffffffffffffffffffffffffffff16815260200191505060405180910390f35b3480156108db57600080fd5b5061091e600480360360208110156108f257600080fd5b81019080803573ffffffffffffffffffffffffffffffffffffffff16906020019092919050505061181c565b6040518082815260200191505060405180910390f35b34801561094057600080fd5b506109496118f1565b6040518080602001828103825283818151815260200191508051906020019080838360005b8381101561098957808201518184015260208101905061096e565b50505050905090810190601f1680156109b65780820380516001836020036101000a031916815260200191505b509250505060405180910390f35b3480156109d057600080fd5b506109d961198f565b604051808273ffffffffffffffffffffffffffffffffffffffff1673ffffffffffffffffffffffffffffffffffffffff16815260200191505060405180910390f35b348015610a2757600080fd5b50610a306119b5565b6040518080602001828103825283818151815260200191508051906020019080838360005b83811015610a70578082015181840152602081019050610a55565b50505050905090810190601f168015610a9d5780820380516001836020036101000a031916815260200191505b509250505060405180910390f35b348015610ab757600080fd5b50610b0660048036036040811015610ace57600080fd5b81019080803573ffffffffffffffffffffffffffffffffffffffff169060200190929190803515159060200190929190505050611a57565b005b348015610b1457600080fd5b50610c1860048036036080811015610b2b57600080fd5b81019080803573ffffffffffffffffffffffffffffffffffffffff169060200190929190803573ffffffffffffffffffffffffffffffffffffffff1690602001909291908035906020019092919080359060200190640100000000811115610b9257600080fd5b820183602082011115610ba457600080fd5b80359060200191846001830284011164010000000083111715610bc657600080fd5b91908080601f016020809104026020016040519081016040528093929190818152602001838380828437600081840152601f19601f820116905080830192505050505050509192919290505050611bfa565b005b610c4660048036036020811015610c3057600080fd5b8101908080359060200190929190505050611c6c565b005b348015610c5457600080fd5b50610c5d611e2e565b6040518082815260200191505060405180910390f35b348015610c7f57600080fd5b50610cac60048036036020811015610c9657600080fd5b8101908080359060200190929190505050611e34565b6040518080602001828103825283818151815260200191508051906020019080838360005b83811015610cec578082015181840152602081019050610cd1565b50505050905090810190601f168015610d195780820380516001836020036101000a031916815260200191505b509250505060405180910390f35b348015610d3357600080fd5b50610d9660048036036040811015610d4a57600080fd5b81019080803573ffffffffffffffffffffffffffffffffffffffff169060200190929190803573ffffffffffffffffffffffffffffffffffffffff169060200190929190505050611f47565b604051808215151515815260200191505060405180910390f35b348015610dbc57600080fd5b50610dc5611fdb565b005b6000806000837bffffffffffffffffffffffffffffffffffffffffffffffffffffffff19167bffffffffffffffffffffffffffffffffffffffffffffffffffffffff1916815260200190815260200160002060009054906101000a900460ff169050919050565b600c8054600181600116156101000203166002900480601f016020809104026020016040519081016040528092919081815260200182805460018160011615610100020316600290048015610ec45780601f10610e9957610100808354040283529160200191610ec4565b820191906000526020600020905b815481529060010190602001808311610ea757829003601f168201915b505050505081565b6000610ed78261209e565b610f2c576040517f08c379a000000000000000000000000000000000000000000000000000000000815260040180806020018281038252602c815260200180613306602c913960400191505060405180910390fd5b6002600083815260200190815260200160002060009054906101000a900473ffffffffffffffffffffffffffffffffffffffff169050919050565b6000610f7282611754565b90508073ffffffffffffffffffffffffffffffffffffffff168373ffffffffffffffffffffffffffffffffffffffff161415610ff9576040517f08c379a000000000000000000000000000000000000000000000000000000000815260040180806020018281038252602181526020018061338a6021913960400191505060405180910390fd5b8073ffffffffffffffffffffffffffffffffffffffff163373ffffffffffffffffffffffffffffffffffffffff16148061103957506110388133611f47565b5b61108e576040517f08c379a000000000000000000000000000000000000000000000000000000000815260040180806020018281038252603881526020018061325a6038913960400191505060405180910390fd5b826002600084815260200190815260200160002060006101000a81548173ffffffffffffffffffffffffffffffffffffffff021916908373ffffffffffffffffffffffffffffffffffffffff160217905550818373ffffffffffffffffffffffffffffffffffffffff168273ffffffffffffffffffffffffffffffffffffffff167f8c5be1e5ebec7d5bd14f71427d1e84f3dd0314c0f7b2291e5b200ac8c7c3b92560405160405180910390a4505050565b600d5481565b6000601360009054906101000a900460ff16905090565b60145481565b6000600780549050905090565b601560009054906101000a900473ffffffffffffffffffffffffffffffffffffffff1673ffffffffffffffffffffffffffffffffffffffff163373ffffffffffffffffffffffffffffffffffffffff1614611216576040517f08c379a00000000000000000000000000000000000000000000000000000000081526004018080602001828103825260328152602001806132286032913960400191505060405180910390fd5b3373ffffffffffffffffffffffffffffffffffffffff16ff5b6112393382612110565b61128e576040517f08c379a00000000000000000000000000000000000000000000000000000000081526004018080602001828103825260318152602001806133ab6031913960400191505060405180910390fd5b611299838383612204565b505050565b60006112a98361181c565b8210611300576040517f08c379a000000000000000000000000000000000000000000000000000000000815260040180806020018281038252602b81526020018061317b602b913960400191505060405180910390fd5b600560008473ffffffffffffffffffffffffffffffffffffffff1673ffffffffffffffffffffffffffffffffffffffff168152602001908152602001600020828154811061134a57fe5b9060005260206000200154905092915050565b61137883838360405180602001604052806000815250611bfa565b505050565b60105481565b600061138d611163565b82106113e4576040517f08c379a000000000000000000000000000000000000000000000000000000000815260040180806020018281038252602c8152602001806133dc602c913960400191505060405180910390fd5b600782815481106113f157fe5b90600052602060002001549050919050565b60118054600181600116156101000203166002900480601f0160208091040260200160405190810160405280929190818152602001828054600181600116156101000203166002900480156114995780601f1061146e57610100808354040283529160200191611499565b820191906000526020600020905b81548152906001019060200180831161147c57829003601f168201915b505050505081565b8173ffffffffffffffffffffffffffffffffffffffff16600073ffffffffffffffffffffffffffffffffffffffff161415611544576040517f08c379a00000000000000000000000000000000000000000000000000000000081526004018080602001828103825260188152602001807f696e76616c696420616464726573732070726f7669646564000000000000000081525060200191505060405180910390fd5b61154f33838361122f565b7fd44fac1f5dbf8e8674ffb02fd7846c7b6771f2d2a311ae9d2ee52958e69ea5fe338383604051808473ffffffffffffffffffffffffffffffffffffffff1673ffffffffffffffffffffffffffffffffffffffff1681526020018373ffffffffffffffffffffffffffffffffffffffff1673ffffffffffffffffffffffffffffffffffffffff168152602001828152602001935050505060405180910390a15050565b60606115fd82612228565b80548060200260200160405190810160405280929190818152602001828054801561164757602002820191906000526020600020905b815481526020019060010190808311611633575b50505050509050919050565b6000601560009054906101000a900473ffffffffffffffffffffffffffffffffffffffff1673ffffffffffffffffffffffffffffffffffffffff163373ffffffffffffffffffffffffffffffffffffffff16146116fb576040517f08c379a00000000000000000000000000000000000000000000000000000000081526004018080602001828103825260328152602001806132286032913960400191505060405180910390fd5b8273ffffffffffffffffffffffffffffffffffffffff1661171b83611754565b73ffffffffffffffffffffffffffffffffffffffff1614156117495761174082612270565b6001905061174e565b600090505b92915050565b6000806001600084815260200190815260200160002060009054906101000a900473ffffffffffffffffffffffffffffffffffffffff169050600073ffffffffffffffffffffffffffffffffffffffff168173ffffffffffffffffffffffffffffffffffffffff161415611813576040517f08c379a00000000000000000000000000000000000000000000000000000000081526004018080602001828103825260298152602001806132bc6029913960400191505060405180910390fd5b80915050919050565b60008073ffffffffffffffffffffffffffffffffffffffff168273ffffffffffffffffffffffffffffffffffffffff1614156118a3576040517f08c379a000000000000000000000000000000000000000000000000000000000815260040180806020018281038252602a815260200180613292602a913960400191505060405180910390fd5b6118ea600360008473ffffffffffffffffffffffffffffffffffffffff1673ffffffffffffffffffffffffffffffffffffffff168152602001908152602001600020612285565b9050919050565b60128054600181600116156101000203166002900480601f0160208091040260200160405190810160405280929190818152602001828054600181600116156101000203166002900480156119875780601f1061195c57610100808354040283529160200191611987565b820191906000526020600020905b81548152906001019060200180831161196a57829003601f168201915b505050505081565b601560009054906101000a900473ffffffffffffffffffffffffffffffffffffffff1681565b6060600a8054600181600116156101000203166002900480601f016020809104026020016040519081016040528092919081815260200182805460018160011615610100020316600290048015611a4d5780601f10611a2257610100808354040283529160200191611a4d565b820191906000526020600020905b815481529060010190602001808311611a3057829003601f168201915b5050505050905090565b3373ffffffffffffffffffffffffffffffffffffffff168273ffffffffffffffffffffffffffffffffffffffff161415611af9576040517f08c379a00000000000000000000000000000000000000000000000000000000081526004018080602001828103825260198152602001807f4552433732313a20617070726f766520746f2063616c6c65720000000000000081525060200191505060405180910390fd5b80600460003373ffffffffffffffffffffffffffffffffffffffff1673ffffffffffffffffffffffffffffffffffffffff16815260200190815260200160002060008473ffffffffffffffffffffffffffffffffffffffff1673ffffffffffffffffffffffffffffffffffffffff16815260200190815260200160002060006101000a81548160ff0219169083151502179055508173ffffffffffffffffffffffffffffffffffffffff163373ffffffffffffffffffffffffffffffffffffffff167f17307eab39ab6107e8899845ad3d59bd9653f200f220920489ca2b5937696c3183604051808215151515815260200191505060405180910390a35050565b611c0584848461122f565b611c1184848484612293565b611c66576040517f08c379a00000000000000000000000000000000000000000000000000000000081526004018080602001828103825260328152602001806131a66032913960400191505060405180910390fd5b50505050565b806010541015611cc7576040517f08c379a00000000000000000000000000000000000000000000000000000000081526004018080602001828103825260278152602001806131546027913960400191505060405180910390fd5b611cdc8160145461247c90919063ffffffff16565b341015611d51576040517f08c379a00000000000000000000000000000000000000000000000000000000081526004018080602001828103825260158152602001807f6e6f7420656e6f756768206d6f6e65792073656e74000000000000000000000081525060200191505060405180910390fd5b60008090505b818160ff161015611da057600e6000815480929190600101919050555060106000815480929190600190039190505550611d9333600e54612502565b8080600101915050611d57565b503373ffffffffffffffffffffffffffffffffffffffff167f4cf695110eb016237150bbbf930c9f2377261d25c912abc9aaf6ae0834ddd3cb338342604051808473ffffffffffffffffffffffffffffffffffffffff1673ffffffffffffffffffffffffffffffffffffffff168152602001838152602001828152602001935050505060405180910390a250565b600f5481565b6060611e3f8261209e565b611e94576040517f08c379a000000000000000000000000000000000000000000000000000000000815260040180806020018281038252602f81526020018061335b602f913960400191505060405180910390fd5b600b60008381526020019081526020016000208054600181600116156101000203166002900480601f016020809104026020016040519081016040528092919081815260200182805460018160011615610100020316600290048015611f3b5780601f10611f1057610100808354040283529160200191611f3b565b820191906000526020600020905b815481529060010190602001808311611f1e57829003601f168201915b50505050509050919050565b6000600460008473ffffffffffffffffffffffffffffffffffffffff1673ffffffffffffffffffffffffffffffffffffffff16815260200190815260200160002060008373ffffffffffffffffffffffffffffffffffffffff1673ffffffffffffffffffffffffffffffffffffffff16815260200190815260200160002060009054906101000a900460ff16905092915050565b601560009054906101000a900473ffffffffffffffffffffffffffffffffffffffff1673ffffffffffffffffffffffffffffffffffffffff163373ffffffffffffffffffffffffffffffffffffffff1614612081576040517f08c379a00000000000000000000000000000000000000000000000000000000081526004018080602001828103825260328152602001806132286032913960400191505060405180910390fd5b6001601360006101000a81548160ff021916908315150217905550565b6000806001600084815260200190815260200160002060009054906101000a900473ffffffffffffffffffffffffffffffffffffffff169050600073ffffffffffffffffffffffffffffffffffffffff168173ffffffffffffffffffffffffffffffffffffffff161415915050919050565b600061211b8261209e565b612170576040517f08c379a000000000000000000000000000000000000000000000000000000000815260040180806020018281038252602c8152602001806131fc602c913960400191505060405180910390fd5b600061217b83611754565b90508073ffffffffffffffffffffffffffffffffffffffff168473ffffffffffffffffffffffffffffffffffffffff1614806121ea57508373ffffffffffffffffffffffffffffffffffffffff166121d284610ecc565b73ffffffffffffffffffffffffffffffffffffffff16145b806121fb57506121fa8185611f47565b5b91505092915050565b61220f838383612523565b612219838261277e565b612223828261291c565b505050565b6000600560008373ffffffffffffffffffffffffffffffffffffffff1673ffffffffffffffffffffffffffffffffffffffff1681526020019081526020016000209050919050565b61228261227c82611754565b826129e3565b50565b600081600001549050919050565b60006122b48473ffffffffffffffffffffffffffffffffffffffff16612a40565b6122c15760019050612474565b60008473ffffffffffffffffffffffffffffffffffffffff1663150b7a02338887876040518563ffffffff1660e01b8152600401808573ffffffffffffffffffffffffffffffffffffffff1673ffffffffffffffffffffffffffffffffffffffff1681526020018473ffffffffffffffffffffffffffffffffffffffff1673ffffffffffffffffffffffffffffffffffffffff16815260200183815260200180602001828103825283818151815260200191508051906020019080838360005b8381101561239c578082015181840152602081019050612381565b50505050905090810190601f1680156123c95780820380516001836020036101000a031916815260200191505b5095505050505050602060405180830381600087803b1580156123eb57600080fd5b505af11580156123ff573d6000803e3d6000fd5b505050506040513d602081101561241557600080fd5b8101908080519060200190929190505050905063150b7a0260e01b7bffffffffffffffffffffffffffffffffffffffffffffffffffffffff1916817bffffffffffffffffffffffffffffffffffffffffffffffffffffffff1916149150505b949350505050565b60008083141561248f57600090506124fc565b60008284029050828482816124a057fe5b04146124f7576040517f08c379a00000000000000000000000000000000000000000000000000000000081526004018080602001828103825260218152602001806132e56021913960400191505060405180910390fd5b809150505b92915050565b61250c8282612a53565b612516828261291c565b61251f81612c6b565b5050565b8273ffffffffffffffffffffffffffffffffffffffff1661254382611754565b73ffffffffffffffffffffffffffffffffffffffff16146125af576040517f08c379a00000000000000000000000000000000000000000000000000000000081526004018080602001828103825260298152602001806133326029913960400191505060405180910390fd5b600073ffffffffffffffffffffffffffffffffffffffff168273ffffffffffffffffffffffffffffffffffffffff161415612635576040517f08c379a00000000000000000000000000000000000000000000000000000000081526004018080602001828103825260248152602001806131d86024913960400191505060405180910390fd5b61263e81612cb7565b612685600360008573ffffffffffffffffffffffffffffffffffffffff1673ffffffffffffffffffffffffffffffffffffffff168152602001908152602001600020612d75565b6126cc600360008473ffffffffffffffffffffffffffffffffffffffff1673ffffffffffffffffffffffffffffffffffffffff168152602001908152602001600020612d98565b816001600083815260200190815260200160002060006101000a81548173ffffffffffffffffffffffffffffffffffffffff021916908373ffffffffffffffffffffffffffffffffffffffff160217905550808273ffffffffffffffffffffffffffffffffffffffff168473ffffffffffffffffffffffffffffffffffffffff167fddf252ad1be2c89b69c2b068fc378daa952ba7f163c4a11628f55a4df523b3ef60405160405180910390a4505050565b60006127d66001600560008673ffffffffffffffffffffffffffffffffffffffff1673ffffffffffffffffffffffffffffffffffffffff16815260200190815260200160002080549050612dae90919063ffffffff16565b90506000600660008481526020019081526020016000205490508181146128c3576000600560008673ffffffffffffffffffffffffffffffffffffffff1673ffffffffffffffffffffffffffffffffffffffff168152602001908152602001600020838154811061284357fe5b9060005260206000200154905080600560008773ffffffffffffffffffffffffffffffffffffffff1673ffffffffffffffffffffffffffffffffffffffff168152602001908152602001600020838154811061289b57fe5b9060005260206000200181905550816006600083815260200190815260200160002081905550505b600560008573ffffffffffffffffffffffffffffffffffffffff1673ffffffffffffffffffffffffffffffffffffffff16815260200190815260200160002080548091906001900361291591906130ba565b5050505050565b600560008373ffffffffffffffffffffffffffffffffffffffff1673ffffffffffffffffffffffffffffffffffffffff168152602001908152602001600020805490506006600083815260200190815260200160002081905550600560008373ffffffffffffffffffffffffffffffffffffffff1673ffffffffffffffffffffffffffffffffffffffff1681526020019081526020016000208190806001815401808255809150509060018203906000526020600020016000909192909190915055505050565b6129ed8282612e37565b6000600b600083815260200190815260200160002080546001816001161561010002031660029004905014612a3c57600b60008281526020019081526020016000206000612a3b91906130e6565b5b5050565b600080823b905060008111915050919050565b600073ffffffffffffffffffffffffffffffffffffffff168273ffffffffffffffffffffffffffffffffffffffff161415612af6576040517f08c379a00000000000000000000000000000000000000000000000000000000081526004018080602001828103825260208152602001807f4552433732313a206d696e7420746f20746865207a65726f206164647265737381525060200191505060405180910390fd5b612aff8161209e565b15612b72576040517f08c379a000000000000000000000000000000000000000000000000000000000815260040180806020018281038252601c8152602001807f4552433732313a20746f6b656e20616c7265616479206d696e7465640000000081525060200191505060405180910390fd5b816001600083815260200190815260200160002060006101000a81548173ffffffffffffffffffffffffffffffffffffffff021916908373ffffffffffffffffffffffffffffffffffffffff160217905550612c0b600360008473ffffffffffffffffffffffffffffffffffffffff1673ffffffffffffffffffffffffffffffffffffffff168152602001908152602001600020612d98565b808273ffffffffffffffffffffffffffffffffffffffff16600073ffffffffffffffffffffffffffffffffffffffff167fddf252ad1be2c89b69c2b068fc378daa952ba7f163c4a11628f55a4df523b3ef60405160405180910390a45050565b6007805490506008600083815260200190815260200160002081905550600781908060018154018082558091505090600182039060005260206000200160009091929091909150555050565b600073ffffffffffffffffffffffffffffffffffffffff166002600083815260200190815260200160002060009054906101000a900473ffffffffffffffffffffffffffffffffffffffff1673ffffffffffffffffffffffffffffffffffffffff1614612d725760006002600083815260200190815260200160002060006101000a81548173ffffffffffffffffffffffffffffffffffffffff021916908373ffffffffffffffffffffffffffffffffffffffff1602179055505b50565b612d8d60018260000154612dae90919063ffffffff16565b816000018190555050565b6001816000016000828254019250508190555050565b600082821115612e26576040517f08c379a000000000000000000000000000000000000000000000000000000000815260040180806020018281038252601e8152602001807f536166654d6174683a207375627472616374696f6e206f766572666c6f77000081525060200191505060405180910390fd5b600082840390508091505092915050565b612e418282612e71565b612e4b828261277e565b60006006600083815260200190815260200160002081905550612e6d81613000565b5050565b8173ffffffffffffffffffffffffffffffffffffffff16612e9182611754565b73ffffffffffffffffffffffffffffffffffffffff1614612efd576040517f08c379a00000000000000000000000000000000000000000000000000000000081526004018080602001828103825260258152602001806134086025913960400191505060405180910390fd5b612f0681612cb7565b612f4d600360008473ffffffffffffffffffffffffffffffffffffffff1673ffffffffffffffffffffffffffffffffffffffff168152602001908152602001600020612d75565b60006001600083815260200190815260200160002060006101000a81548173ffffffffffffffffffffffffffffffffffffffff021916908373ffffffffffffffffffffffffffffffffffffffff16021790555080600073ffffffffffffffffffffffffffffffffffffffff168373ffffffffffffffffffffffffffffffffffffffff167fddf252ad1be2c89b69c2b068fc378daa952ba7f163c4a11628f55a4df523b3ef60405160405180910390a45050565b600061301b6001600780549050612dae90919063ffffffff16565b905060006008600084815260200190815260200160002054905060006007838154811061304457fe5b90600052602060002001549050806007838154811061305f57fe5b9060005260206000200181905550816008600083815260200190815260200160002081905550600780548091906001900361309a91906130ba565b506000600860008681526020019081526020016000208190555050505050565b8154818355818111156130e1578183600052602060002091820191016130e0919061312e565b5b505050565b50805460018160011615610100020316600290046000825580601f1061310c575061312b565b601f01602090049060005260206000209081019061312a919061312e565b5b50565b61315091905b8082111561314c576000816000905550600101613134565b5090565b9056fe6e6f7420656e6f756768207469636b6574207175616e7469747920617661696c61626c65212121455243373231456e756d657261626c653a206f776e657220696e646578206f7574206f6620626f756e64734552433732313a207472616e7366657220746f206e6f6e20455243373231526563656976657220696d706c656d656e7465724552433732313a207472616e7366657220746f20746865207a65726f20616464726573734552433732313a206f70657261746f7220717565727920666f72206e6f6e6578697374656e7420746f6b656e6f6e6c79206576656e74206f776e657220697320616c6c6f77656420746f20706572666f726d207468697320616374696f6e4552433732313a20617070726f76652063616c6c6572206973206e6f74206f776e6572206e6f7220617070726f76656420666f7220616c6c4552433732313a2062616c616e636520717565727920666f7220746865207a65726f20616464726573734552433732313a206f776e657220717565727920666f72206e6f6e6578697374656e7420746f6b656e536166654d6174683a206d756c7469706c69636174696f6e206f766572666c6f774552433732313a20617070726f76656420717565727920666f72206e6f6e6578697374656e7420746f6b656e4552433732313a207472616e73666572206f6620746f6b656e2074686174206973206e6f74206f776e4552433732314d657461646174613a2055524920717565727920666f72206e6f6e6578697374656e7420746f6b656e4552433732313a20617070726f76616c20746f2063757272656e74206f776e65724552433732313a207472616e736665722063616c6c6572206973206e6f74206f776e6572206e6f7220617070726f766564455243373231456e756d657261626c653a20676c6f62616c20696e646578206f7574206f6620626f756e64734552433732313a206275726e206f6620746f6b656e2074686174206973206e6f74206f776ea265627a7a72315820844d5fc12e838ae198326b4c8c154de3e8f52f0991798c2fc2e0be368bcfc87464736f6c63430005100032a265627a7a723158203a31174e092de708be907594ef41a96e58882e6c03473de52b16569c775c84cd64736f6c63430005100032",
  "source": "pragma solidity ^0.5.0;\r\n\r\nimport \"./Event.sol\";\r\n\r\n/**\r\n@title Event factory */\r\ncontract EventFactory {\r\n\r\n\r\n        /**\r\n        @dev created and deployed new event and saves it in the event list array\r\n        @param _name title of the event to be created \r\n        @param start start date of event in unix timestamp\r\n        @param end end date of event in unix timestamp \r\n        @param supply total supply of event ticket available for the event\r\n        @param ticketPrice price of single ticket price in wei\r\n        @param description description of the event \r\n        @param location location of the event\r\n        @return emits eveneCreated log\r\n        */\r\n    bool private halted;\r\n    address private owner;\r\n\r\n    Event[] public deployedEvents;\r\n    event eventCreated(Event _address, string _name, uint _ticketPrice, string location, uint startDate, uint endDate, string indexed _filterName, string indexed _filterLocation);\r\n\r\n\r\n\r\n    function createEvent(string memory  _name, uint _start, uint _end,  uint supply, uint _ticketPrice, string memory _description, string memory _location) public  {\r\n        require(!halted);\r\n        address payable sender = msg.sender;\r\n        Event newEvent = new Event(sender, _name, _start, _end,_description, _location, supply, _ticketPrice );\r\n        deployedEvents.push(newEvent);\r\n        emit eventCreated(newEvent, _name, _ticketPrice, _location, _start, _end, _name, _location);\r\n\r\n    }\r\n\r\n    /**\r\n    @dev returns list of event addresses\r\n    @return deployedEvents array of event address */\r\n   function getDeployedEvents() public view returns(Event[] memory) {\r\n        return deployedEvents;\r\n    }\r\n\r\n\r\n\r\n    modifier onlyOwner {\r\n        require(msg.sender == owner, \"only the owner can perform this task\");\r\n        _;\r\n    }\r\n    \r\n    \r\n}",
  "sourcePath": "S:/Code/Project_3/Cryptick/Ticket_Bits/client/src/contracts/EventFactory.sol",
  "compiler": {
    "name": "solc",
    "version": "0.5.16+commit.9c3226ce.Emscripten.clang"
  },
  "schemaVersion": "3.3.4",
  "updatedAt": "2021-03-18T03:08:30.143Z",
  "networkType": "ethereum",
  "devdoc": {
    "methods": {
      "getDeployedEvents()": {
        "details": "returns list of event addresses",
        "return": "deployedEvents array of event address "
      }
    },
    "title": "Event factory "
  },
  "userdoc": {
    "methods": {}
  }
}