{
  "contractName": "EventFactory",
  "abi": [
    {
      "anonymous": false,
      "inputs": [
        {
          "indexed": false,
          "internalType": "contract Event",
          "name": "_address",
          "type": "address"
        },
        {
          "indexed": false,
          "internalType": "string",
          "name": "_name",
          "type": "string"
        },
        {
          "indexed": false,
          "internalType": "uint256",
          "name": "_ticketPrice",
          "type": "uint256"
        },
        {
          "indexed": false,
          "internalType": "string",
          "name": "location",
          "type": "string"
        },
        {
          "indexed": false,
          "internalType": "uint256",
          "name": "startDate",
          "type": "uint256"
        },
        {
          "indexed": false,
          "internalType": "uint256",
          "name": "endDate",
          "type": "uint256"
        },
        {
          "indexed": true,
          "internalType": "string",
          "name": "_filterName",
          "type": "string"
        },
        {
          "indexed": true,
          "internalType": "string",
          "name": "_filterLocation",
          "type": "string"
        }
      ],
      "name": "eventCreated",
      "type": "event"
    },
    {
      "constant": true,
      "inputs": [
        {
          "internalType": "uint256",
          "name": "",
          "type": "uint256"
        }
      ],
      "name": "deployedEvents",
      "outputs": [
        {
          "internalType": "contract Event",
          "name": "",
          "type": "address"
        }
      ],
      "payable": false,
      "stateMutability": "view",
      "type": "function"
    },
    {
      "constant": false,
      "inputs": [
        {
          "internalType": "string",
          "name": "_name",
          "type": "string"
        },
        {
          "internalType": "uint256",
          "name": "_start",
          "type": "uint256"
        },
        {
          "internalType": "uint256",
          "name": "_end",
          "type": "uint256"
        },
        {
          "internalType": "uint256",
          "name": "supply",
          "type": "uint256"
        },
        {
          "internalType": "uint256",
          "name": "_ticketPrice",
          "type": "uint256"
        },
        {
          "internalType": "string",
          "name": "_description",
          "type": "string"
        },
        {
          "internalType": "string",
          "name": "_location",
          "type": "string"
        }
      ],
      "name": "createEvent",
      "outputs": [],
      "payable": false,
      "stateMutability": "nonpayable",
      "type": "function"
    },
    {
      "constant": true,
      "inputs": [],
      "name": "getDeployedEvents",
      "outputs": [
        {
          "internalType": "contract Event[]",
          "name": "",
          "type": "address[]"
        }
      ],
      "payable": false,
      "stateMutability": "view",
      "type": "function"
    }
  ],
  "bytecode": "0x608060405234801561001057600080fd5b506148fc806100206000396000f3fe60806040523480156200001157600080fd5b5060043610620000465760003560e01c80633812783e146200004b578063eade22f614620000ae578063efb9a1b2146200011f575b600080fd5b620000556200033c565b6040518080602001828103825283818151815260200191508051906020019060200280838360005b838110156200009a5780820151818401526020810190506200007d565b505050509050019250505060405180910390f35b620000dd60048036036020811015620000c657600080fd5b8101908080359060200190929190505050620003cc565b604051808273ffffffffffffffffffffffffffffffffffffffff1673ffffffffffffffffffffffffffffffffffffffff16815260200191505060405180910390f35b6200033a600480360360e08110156200013757600080fd5b81019080803590602001906401000000008111156200015557600080fd5b8201836020820111156200016857600080fd5b803590602001918460018302840111640100000000831117156200018b57600080fd5b91908080601f016020809104026020016040519081016040528093929190818152602001838380828437600081840152601f19601f82011690508083019250505050505050919291929080359060200190929190803590602001909291908035906020019092919080359060200190929190803590602001906401000000008111156200021757600080fd5b8201836020820111156200022a57600080fd5b803590602001918460018302840111640100000000831117156200024d57600080fd5b91908080601f016020809104026020016040519081016040528093929190818152602001838380828437600081840152601f19601f82011690508083019250505050505050919291929080359060200190640100000000811115620002b157600080fd5b820183602082011115620002c457600080fd5b80359060200191846001830284011164010000000083111715620002e757600080fd5b91908080601f016020809104026020016040519081016040528093929190818152602001838380828437600081840152601f19601f82011690508083019250505050505050919291929050505062000409565b005b60606001805480602002602001604051908101604052809291908181526020018280548015620003c257602002820191906000526020600020905b8160009054906101000a900473ffffffffffffffffffffffffffffffffffffffff1673ffffffffffffffffffffffffffffffffffffffff168152602001906001019080831162000377575b5050505050905090565b60018181548110620003da57fe5b906000526020600020016000915054906101000a900473ffffffffffffffffffffffffffffffffffffffff1681565b6000809054906101000a900460ff16156200042357600080fd5b600033905060008189898987878b8b604051620004409062000891565b808973ffffffffffffffffffffffffffffffffffffffff1673ffffffffffffffffffffffffffffffffffffffff16815260200180602001888152602001878152602001806020018060200186815260200185815260200184810384528b818151815260200191508051906020019080838360005b83811015620004d1578082015181840152602081019050620004b4565b50505050905090810190601f168015620004ff5780820380516001836020036101000a031916815260200191505b50848103835288818151815260200191508051906020019080838360005b838110156200053a5780820151818401526020810190506200051d565b50505050905090810190601f168015620005685780820380516001836020036101000a031916815260200191505b50848103825287818151815260200191508051906020019080838360005b83811015620005a357808201518184015260208101905062000586565b50505050905090810190601f168015620005d15780820380516001836020036101000a031916815260200191505b509b505050505050505050505050604051809103906000f080158015620005fc573d6000803e3d6000fd5b50905060018190806001815401808255809150509060018203906000526020600020016000909192909190916101000a81548173ffffffffffffffffffffffffffffffffffffffff021916908373ffffffffffffffffffffffffffffffffffffffff16021790555050826040518082805190602001908083835b602083106200069b578051825260208201915060208101905060208303925062000676565b6001836020036101000a0380198251168184511680821785525050505050509050019150506040518091039020896040518082805190602001908083835b60208310620006fe5780518252602082019150602081019050602083039250620006d9565b6001836020036101000a03801982511681845116808217855250505050505090500191505060405180910390207f6ff0bb589eb87a40aa0cfd5832c5c22dc1c626b86daae2eaac21b03a77302942838c89888e8e604051808773ffffffffffffffffffffffffffffffffffffffff1673ffffffffffffffffffffffffffffffffffffffff1681526020018060200186815260200180602001858152602001848152602001838103835288818151815260200191508051906020019080838360005b83811015620007dc578082015181840152602081019050620007bf565b50505050905090810190601f1680156200080a5780820380516001836020036101000a031916815260200191505b50838103825286818151815260200191508051906020019080838360005b838110156200084557808201518184015260208101905062000828565b50505050905090810190601f168015620008735780820380516001836020036101000a031916815260200191505b509850505050505050505060405180910390a3505050505050505050565b61402880620008a08339019056fe60806040526005601260006101000a81548160ff021916908360ff1602179055503480156200002d57600080fd5b50604051620040283803806200402883398181016040526101008110156200005457600080fd5b8101908080519060200190929190805160405193929190846401000000008211156200007f57600080fd5b838201915060208201858111156200009657600080fd5b8251866001820283011164010000000082111715620000b457600080fd5b8083526020830192505050908051906020019080838360005b83811015620000ea578082015181840152602081019050620000cd565b50505050905090810190601f168015620001185780820380516001836020036101000a031916815260200191505b506040526020018051906020019092919080519060200190929190805160405193929190846401000000008211156200015057600080fd5b838201915060208201858111156200016757600080fd5b82518660018202830111640100000000821117156200018557600080fd5b8083526020830192505050908051906020019080838360005b83811015620001bb5780820151818401526020810190506200019e565b50505050905090810190601f168015620001e95780820380516001836020036101000a031916815260200191505b50604052602001805160405193929190846401000000008211156200020d57600080fd5b838201915060208201858111156200022457600080fd5b82518660018202830111640100000000821117156200024257600080fd5b8083526020830192505050908051906020019080838360005b83811015620002785780820151818401526020810190506200025b565b50505050905090810190601f168015620002a65780820380516001836020036101000a031916815260200191505b506040526020018051906020019092919080519060200190929190505050866040518060400160405280600381526020017f544b5400000000000000000000000000000000000000000000000000000000008152508181620003156301ffc9a760e01b6200044960201b60201c565b6200032d6380ac58cd60e01b6200044960201b60201c565b6200034563780e9d6360e01b6200044960201b60201c565b81600990805190602001906200035d92919062000552565b5080600a90805190602001906200037692919062000552565b506200038f635b5e139f60e01b6200044960201b60201c565b5050505086600c9080519060200190620003ab92919062000552565b5085600d8190555084600f8190555080601681905550816010819055508360139080519060200190620003e092919062000552565b5087601760006101000a81548173ffffffffffffffffffffffffffffffffffffffff021916908373ffffffffffffffffffffffffffffffffffffffff16021790555082601190805190602001906200043a92919062000552565b50505050505050505062000601565b63ffffffff60e01b817bffffffffffffffffffffffffffffffffffffffffffffffffffffffff19161415620004e6576040517f08c379a000000000000000000000000000000000000000000000000000000000815260040180806020018281038252601c8152602001807f4552433136353a20696e76616c696420696e746572666163652069640000000081525060200191505060405180910390fd5b6001600080837bffffffffffffffffffffffffffffffffffffffffffffffffffffffff19167bffffffffffffffffffffffffffffffffffffffffffffffffffffffff1916815260200190815260200160002060006101000a81548160ff02191690831515021790555050565b828054600181600116156101000203166002900490600052602060002090601f016020900481019282601f106200059557805160ff1916838001178555620005c6565b82800160010185558215620005c6579182015b82811115620005c5578251825591602001919060010190620005a8565b5b509050620005d59190620005d9565b5090565b620005fe91905b80821115620005fa576000816000905550600101620005e0565b5090565b90565b613a1780620006116000396000f3fe6080604052600436106101ee5760003560e01c806351958a561161010d57806395d89b41116100a0578063c24a0f8b1161006f578063c24a0f8b14610dc1578063c87b56dd14610dec578063d2f0be9914610ea0578063e985e9c514610edb578063fb6c953714610f64576101ee565b806395d89b4114610b94578063a22cb46514610c24578063b88d4fde14610c81578063b948348c14610d93576101ee565b806370a08231116100dc57806370a082311461098057806371adb5e6146109e55780637284e41614610aad5780638da5cb5b14610b3d576101ee565b806351958a56146107915780635cc08cec146107ec5780635d036d1a146108925780636352211e14610905576101ee565b80631e638f2e1161018557806348a0d7541161015457806348a0d754146105f75780634f6ccce71461062257806351605d8014610671578063516f279e14610701576101ee565b80631e638f2e1461047b57806323b872dd146104925780632f745c591461050d57806342842e0e1461057c576101ee565b80630b97bc86116101c15780630b97bc86146103cb5780630ed5a933146103f65780631209b1f61461042557806318160ddd14610450576101ee565b806301ffc9a7146101f357806306fdde0314610265578063081812fc146102f5578063095ea7b314610370575b600080fd5b3480156101ff57600080fd5b5061024b6004803603602081101561021657600080fd5b8101908080357bffffffffffffffffffffffffffffffffffffffffffffffffffffffff19169060200190929190505050610f7b565b604051808215151515815260200191505060405180910390f35b34801561027157600080fd5b5061027a610fe2565b6040518080602001828103825283818151815260200191508051906020019080838360005b838110156102ba57808201518184015260208101905061029f565b50505050905090810190601f1680156102e75780820380516001836020036101000a031916815260200191505b509250505060405180910390f35b34801561030157600080fd5b5061032e6004803603602081101561031857600080fd5b8101908080359060200190929190505050611080565b604051808273ffffffffffffffffffffffffffffffffffffffff1673ffffffffffffffffffffffffffffffffffffffff16815260200191505060405180910390f35b34801561037c57600080fd5b506103c96004803603604081101561039357600080fd5b81019080803573ffffffffffffffffffffffffffffffffffffffff1690602001909291908035906020019092919050505061111b565b005b3480156103d757600080fd5b506103e06112f4565b6040518082815260200191505060405180910390f35b34801561040257600080fd5b5061040b6112fa565b604051808215151515815260200191505060405180910390f35b34801561043157600080fd5b5061043a611311565b6040518082815260200191505060405180910390f35b34801561045c57600080fd5b50610465611317565b6040518082815260200191505060405180910390f35b34801561048757600080fd5b50610490611324565b005b34801561049e57600080fd5b5061050b600480360360608110156104b557600080fd5b81019080803573ffffffffffffffffffffffffffffffffffffffff169060200190929190803573ffffffffffffffffffffffffffffffffffffffff169060200190929190803590602001909291905050506113e3565b005b34801561051957600080fd5b506105666004803603604081101561053057600080fd5b81019080803573ffffffffffffffffffffffffffffffffffffffff16906020019092919080359060200190929190505050611452565b6040518082815260200191505060405180910390f35b34801561058857600080fd5b506105f56004803603606081101561059f57600080fd5b81019080803573ffffffffffffffffffffffffffffffffffffffff169060200190929190803573ffffffffffffffffffffffffffffffffffffffff16906020019092919080359060200190929190505050611511565b005b34801561060357600080fd5b5061060c611531565b6040518082815260200191505060405180910390f35b34801561062e57600080fd5b5061065b6004803603602081101561064557600080fd5b8101908080359060200190929190505050611537565b6040518082815260200191505060405180910390f35b34801561067d57600080fd5b506106866115b7565b6040518080602001828103825283818151815260200191508051906020019080838360005b838110156106c65780820151818401526020810190506106ab565b50505050905090810190601f1680156106f35780820380516001836020036101000a031916815260200191505b509250505060405180910390f35b34801561070d57600080fd5b50610716611655565b6040518080602001828103825283818151815260200191508051906020019080838360005b8381101561075657808201518184015260208101905061073b565b50505050905090810190601f1680156107835780820380516001836020036101000a031916815260200191505b509250505060405180910390f35b34801561079d57600080fd5b506107ea600480360360408110156107b457600080fd5b81019080803573ffffffffffffffffffffffffffffffffffffffff169060200190929190803590602001909291905050506116f3565b005b3480156107f857600080fd5b5061083b6004803603602081101561080f57600080fd5b81019080803573ffffffffffffffffffffffffffffffffffffffff169060200190929190505050611844565b6040518080602001828103825283818151815260200191508051906020019060200280838360005b8381101561087e578082015181840152602081019050610863565b505050509050019250505060405180910390f35b34801561089e57600080fd5b506108eb600480360360408110156108b557600080fd5b81019080803573ffffffffffffffffffffffffffffffffffffffff169060200190929190803590602001909291905050506118a5565b604051808215151515815260200191505060405180910390f35b34801561091157600080fd5b5061093e6004803603602081101561092857600080fd5b81019080803590602001909291905050506119a6565b604051808273ffffffffffffffffffffffffffffffffffffffff1673ffffffffffffffffffffffffffffffffffffffff16815260200191505060405180910390f35b34801561098c57600080fd5b506109cf600480360360208110156109a357600080fd5b81019080803573ffffffffffffffffffffffffffffffffffffffff169060200190929190505050611a6e565b6040518082815260200191505060405180910390f35b3480156109f157600080fd5b50610aab60048036036020811015610a0857600080fd5b8101908080359060200190640100000000811115610a2557600080fd5b820183602082011115610a3757600080fd5b80359060200191846001830284011164010000000083111715610a5957600080fd5b91908080601f016020809104026020016040519081016040528093929190818152602001838380828437600081840152601f19601f820116905080830192505050505050509192919290505050611b43565b005b348015610ab957600080fd5b50610ac2611b5d565b6040518080602001828103825283818151815260200191508051906020019080838360005b83811015610b02578082015181840152602081019050610ae7565b50505050905090810190601f168015610b2f5780820380516001836020036101000a031916815260200191505b509250505060405180910390f35b348015610b4957600080fd5b50610b52611bfb565b604051808273ffffffffffffffffffffffffffffffffffffffff1673ffffffffffffffffffffffffffffffffffffffff16815260200191505060405180910390f35b348015610ba057600080fd5b50610ba9611c21565b6040518080602001828103825283818151815260200191508051906020019080838360005b83811015610be9578082015181840152602081019050610bce565b50505050905090810190601f168015610c165780820380516001836020036101000a031916815260200191505b509250505060405180910390f35b348015610c3057600080fd5b50610c7f60048036036040811015610c4757600080fd5b81019080803573ffffffffffffffffffffffffffffffffffffffff169060200190929190803515159060200190929190505050611cc3565b005b348015610c8d57600080fd5b50610d9160048036036080811015610ca457600080fd5b81019080803573ffffffffffffffffffffffffffffffffffffffff169060200190929190803573ffffffffffffffffffffffffffffffffffffffff1690602001909291908035906020019092919080359060200190640100000000811115610d0b57600080fd5b820183602082011115610d1d57600080fd5b80359060200191846001830284011164010000000083111715610d3f57600080fd5b91908080601f016020809104026020016040519081016040528093929190818152602001838380828437600081840152601f19601f820116905080830192505050505050509192919290505050611e66565b005b610dbf60048036036020811015610da957600080fd5b8101908080359060200190929190505050611ed8565b005b348015610dcd57600080fd5b50610dd6612105565b6040518082815260200191505060405180910390f35b348015610df857600080fd5b50610e2560048036036020811015610e0f57600080fd5b810190808035906020019092919050505061210b565b6040518080602001828103825283818151815260200191508051906020019080838360005b83811015610e65578082015181840152602081019050610e4a565b50505050905090810190601f168015610e925780820380516001836020036101000a031916815260200191505b509250505060405180910390f35b348015610eac57600080fd5b50610ed960048036036020811015610ec357600080fd5b810190808035906020019092919050505061221e565b005b348015610ee757600080fd5b50610f4a60048036036040811015610efe57600080fd5b81019080803573ffffffffffffffffffffffffffffffffffffffff169060200190929190803573ffffffffffffffffffffffffffffffffffffffff169060200190929190505050612424565b604051808215151515815260200191505060405180910390f35b348015610f7057600080fd5b50610f796124b8565b005b6000806000837bffffffffffffffffffffffffffffffffffffffffffffffffffffffff19167bffffffffffffffffffffffffffffffffffffffffffffffffffffffff1916815260200190815260200160002060009054906101000a900460ff169050919050565b600c8054600181600116156101000203166002900480601f0160208091040260200160405190810160405280929190818152602001828054600181600116156101000203166002900480156110785780601f1061104d57610100808354040283529160200191611078565b820191906000526020600020905b81548152906001019060200180831161105b57829003601f168201915b505050505081565b600061108b8261257b565b6110e0576040517f08c379a000000000000000000000000000000000000000000000000000000000815260040180806020018281038252602c815260200180613863602c913960400191505060405180910390fd5b6002600083815260200190815260200160002060009054906101000a900473ffffffffffffffffffffffffffffffffffffffff169050919050565b6000611126826119a6565b90508073ffffffffffffffffffffffffffffffffffffffff168373ffffffffffffffffffffffffffffffffffffffff1614156111ad576040517f08c379a00000000000000000000000000000000000000000000000000000000081526004018080602001828103825260218152602001806139406021913960400191505060405180910390fd5b8073ffffffffffffffffffffffffffffffffffffffff163373ffffffffffffffffffffffffffffffffffffffff1614806111ed57506111ec8133612424565b5b611242576040517f08c379a00000000000000000000000000000000000000000000000000000000081526004018080602001828103825260388152602001806137b76038913960400191505060405180910390fd5b826002600084815260200190815260200160002060006101000a81548173ffffffffffffffffffffffffffffffffffffffff021916908373ffffffffffffffffffffffffffffffffffffffff160217905550818373ffffffffffffffffffffffffffffffffffffffff168273ffffffffffffffffffffffffffffffffffffffff167f8c5be1e5ebec7d5bd14f71427d1e84f3dd0314c0f7b2291e5b200ac8c7c3b92560405160405180910390a4505050565b600d5481565b6000601560009054906101000a900460ff16905090565b60165481565b6000600780549050905090565b601760009054906101000a900473ffffffffffffffffffffffffffffffffffffffff1673ffffffffffffffffffffffffffffffffffffffff163373ffffffffffffffffffffffffffffffffffffffff16146113ca576040517f08c379a00000000000000000000000000000000000000000000000000000000081526004018080602001828103825260328152602001806137856032913960400191505060405180910390fd5b3373ffffffffffffffffffffffffffffffffffffffff16ff5b6113ed33826125ed565b611442576040517f08c379a00000000000000000000000000000000000000000000000000000000081526004018080602001828103825260318152602001806139616031913960400191505060405180910390fd5b61144d8383836126e1565b505050565b600061145d83611a6e565b82106114b4576040517f08c379a000000000000000000000000000000000000000000000000000000000815260040180806020018281038252602b8152602001806136d8602b913960400191505060405180910390fd5b600560008473ffffffffffffffffffffffffffffffffffffffff1673ffffffffffffffffffffffffffffffffffffffff16815260200190815260200160002082815481106114fe57fe5b9060005260206000200154905092915050565b61152c83838360405180602001604052806000815250611e66565b505050565b60105481565b6000611541611317565b8210611598576040517f08c379a000000000000000000000000000000000000000000000000000000000815260040180806020018281038252602c815260200180613992602c913960400191505060405180910390fd5b600782815481106115a557fe5b90600052602060002001549050919050565b60148054600181600116156101000203166002900480601f01602080910402602001604051908101604052809291908181526020018280546001816001161561010002031660029004801561164d5780601f106116225761010080835404028352916020019161164d565b820191906000526020600020905b81548152906001019060200180831161163057829003601f168201915b505050505081565b60118054600181600116156101000203166002900480601f0160208091040260200160405190810160405280929190818152602001828054600181600116156101000203166002900480156116eb5780601f106116c0576101008083540402835291602001916116eb565b820191906000526020600020905b8154815290600101906020018083116116ce57829003601f168201915b505050505081565b8173ffffffffffffffffffffffffffffffffffffffff16600073ffffffffffffffffffffffffffffffffffffffff161415611796576040517f08c379a00000000000000000000000000000000000000000000000000000000081526004018080602001828103825260188152602001807f696e76616c696420616464726573732070726f7669646564000000000000000081525060200191505060405180910390fd5b6117a13383836113e3565b7fd44fac1f5dbf8e8674ffb02fd7846c7b6771f2d2a311ae9d2ee52958e69ea5fe338383604051808473ffffffffffffffffffffffffffffffffffffffff1673ffffffffffffffffffffffffffffffffffffffff1681526020018373ffffffffffffffffffffffffffffffffffffffff1673ffffffffffffffffffffffffffffffffffffffff168152602001828152602001935050505060405180910390a15050565b606061184f82612705565b80548060200260200160405190810160405280929190818152602001828054801561189957602002820191906000526020600020905b815481526020019060010190808311611885575b50505050509050919050565b6000601760009054906101000a900473ffffffffffffffffffffffffffffffffffffffff1673ffffffffffffffffffffffffffffffffffffffff163373ffffffffffffffffffffffffffffffffffffffff161461194d576040517f08c379a00000000000000000000000000000000000000000000000000000000081526004018080602001828103825260328152602001806137856032913960400191505060405180910390fd5b8273ffffffffffffffffffffffffffffffffffffffff1661196d836119a6565b73ffffffffffffffffffffffffffffffffffffffff16141561199b576119928261274d565b600190506119a0565b600090505b92915050565b6000806001600084815260200190815260200160002060009054906101000a900473ffffffffffffffffffffffffffffffffffffffff169050600073ffffffffffffffffffffffffffffffffffffffff168173ffffffffffffffffffffffffffffffffffffffff161415611a65576040517f08c379a00000000000000000000000000000000000000000000000000000000081526004018080602001828103825260298152602001806138196029913960400191505060405180910390fd5b80915050919050565b60008073ffffffffffffffffffffffffffffffffffffffff168273ffffffffffffffffffffffffffffffffffffffff161415611af5576040517f08c379a000000000000000000000000000000000000000000000000000000000815260040180806020018281038252602a8152602001806137ef602a913960400191505060405180910390fd5b611b3c600360008473ffffffffffffffffffffffffffffffffffffffff1673ffffffffffffffffffffffffffffffffffffffff168152602001908152602001600020612762565b9050919050565b8060149080519060200190611b59929190613597565b5050565b60138054600181600116156101000203166002900480601f016020809104026020016040519081016040528092919081815260200182805460018160011615610100020316600290048015611bf35780601f10611bc857610100808354040283529160200191611bf3565b820191906000526020600020905b815481529060010190602001808311611bd657829003601f168201915b505050505081565b601760009054906101000a900473ffffffffffffffffffffffffffffffffffffffff1681565b6060600a8054600181600116156101000203166002900480601f016020809104026020016040519081016040528092919081815260200182805460018160011615610100020316600290048015611cb95780601f10611c8e57610100808354040283529160200191611cb9565b820191906000526020600020905b815481529060010190602001808311611c9c57829003601f168201915b5050505050905090565b3373ffffffffffffffffffffffffffffffffffffffff168273ffffffffffffffffffffffffffffffffffffffff161415611d65576040517f08c379a00000000000000000000000000000000000000000000000000000000081526004018080602001828103825260198152602001807f4552433732313a20617070726f766520746f2063616c6c65720000000000000081525060200191505060405180910390fd5b80600460003373ffffffffffffffffffffffffffffffffffffffff1673ffffffffffffffffffffffffffffffffffffffff16815260200190815260200160002060008473ffffffffffffffffffffffffffffffffffffffff1673ffffffffffffffffffffffffffffffffffffffff16815260200190815260200160002060006101000a81548160ff0219169083151502179055508173ffffffffffffffffffffffffffffffffffffffff163373ffffffffffffffffffffffffffffffffffffffff167f17307eab39ab6107e8899845ad3d59bd9653f200f220920489ca2b5937696c3183604051808215151515815260200191505060405180910390a35050565b611e718484846113e3565b611e7d84848484612770565b611ed2576040517f08c379a00000000000000000000000000000000000000000000000000000000081526004018080602001828103825260328152602001806137036032913960400191505060405180910390fd5b50505050565b601260009054906101000a900460ff1660ff16811115611f43576040517f08c379a000000000000000000000000000000000000000000000000000000000815260040180806020018281038252602b815260200180613915602b913960400191505060405180910390fd5b806010541015611f9e576040517f08c379a00000000000000000000000000000000000000000000000000000000081526004018080602001828103825260278152602001806136b16027913960400191505060405180910390fd5b611fb38160165461295990919063ffffffff16565b341015612028576040517f08c379a00000000000000000000000000000000000000000000000000000000081526004018080602001828103825260158152602001807f6e6f7420656e6f756768206d6f6e65792073656e74000000000000000000000081525060200191505060405180910390fd5b60008090505b818160ff16101561207757600e600081548092919060010191905055506010600081548092919060019003919050555061206a33600e546129df565b808060010191505061202e565b503373ffffffffffffffffffffffffffffffffffffffff167f4cf695110eb016237150bbbf930c9f2377261d25c912abc9aaf6ae0834ddd3cb338342604051808473ffffffffffffffffffffffffffffffffffffffff1673ffffffffffffffffffffffffffffffffffffffff168152602001838152602001828152602001935050505060405180910390a250565b600f5481565b60606121168261257b565b61216b576040517f08c379a000000000000000000000000000000000000000000000000000000000815260040180806020018281038252602f8152602001806138e6602f913960400191505060405180910390fd5b600b60008381526020019081526020016000208054600181600116156101000203166002900480601f0160208091040260200160405190810160405280929190818152602001828054600181600116156101000203166002900480156122125780601f106121e757610100808354040283529160200191612212565b820191906000526020600020905b8154815290600101906020018083116121f557829003601f168201915b50505050509050919050565b3373ffffffffffffffffffffffffffffffffffffffff16600073ffffffffffffffffffffffffffffffffffffffff1614156122c1576040517f08c379a00000000000000000000000000000000000000000000000000000000081526004018080602001828103825260188152602001807f696e76616c696420616464726573732070726f7669646564000000000000000081525060200191505060405180910390fd5b601560009054906101000a900460ff16612326576040517f08c379a000000000000000000000000000000000000000000000000000000000815260040180806020018281038252602e8152602001806138b8602e913960400191505060405180910390fd5b61232f8161274d565b3373ffffffffffffffffffffffffffffffffffffffff166108fc6016549081150290604051600060405180830381858888f19350505050158015612377573d6000803e3d6000fd5b507f34ea30b622454ede1d09bad7594804f299c83c669a09b435992ff93cf9ad9804303383601654604051808573ffffffffffffffffffffffffffffffffffffffff1673ffffffffffffffffffffffffffffffffffffffff1681526020018473ffffffffffffffffffffffffffffffffffffffff1673ffffffffffffffffffffffffffffffffffffffff16815260200183815260200182815260200194505050505060405180910390a150565b6000600460008473ffffffffffffffffffffffffffffffffffffffff1673ffffffffffffffffffffffffffffffffffffffff16815260200190815260200160002060008373ffffffffffffffffffffffffffffffffffffffff1673ffffffffffffffffffffffffffffffffffffffff16815260200190815260200160002060009054906101000a900460ff16905092915050565b601760009054906101000a900473ffffffffffffffffffffffffffffffffffffffff1673ffffffffffffffffffffffffffffffffffffffff163373ffffffffffffffffffffffffffffffffffffffff161461255e576040517f08c379a00000000000000000000000000000000000000000000000000000000081526004018080602001828103825260328152602001806137856032913960400191505060405180910390fd5b6001601560006101000a81548160ff021916908315150217905550565b6000806001600084815260200190815260200160002060009054906101000a900473ffffffffffffffffffffffffffffffffffffffff169050600073ffffffffffffffffffffffffffffffffffffffff168173ffffffffffffffffffffffffffffffffffffffff161415915050919050565b60006125f88261257b565b61264d576040517f08c379a000000000000000000000000000000000000000000000000000000000815260040180806020018281038252602c815260200180613759602c913960400191505060405180910390fd5b6000612658836119a6565b90508073ffffffffffffffffffffffffffffffffffffffff168473ffffffffffffffffffffffffffffffffffffffff1614806126c757508373ffffffffffffffffffffffffffffffffffffffff166126af84611080565b73ffffffffffffffffffffffffffffffffffffffff16145b806126d857506126d78185612424565b5b91505092915050565b6126ec838383612a00565b6126f68382612c5b565b6127008282612df9565b505050565b6000600560008373ffffffffffffffffffffffffffffffffffffffff1673ffffffffffffffffffffffffffffffffffffffff1681526020019081526020016000209050919050565b61275f612759826119a6565b82612ec0565b50565b600081600001549050919050565b60006127918473ffffffffffffffffffffffffffffffffffffffff16612f1d565b61279e5760019050612951565b60008473ffffffffffffffffffffffffffffffffffffffff1663150b7a02338887876040518563ffffffff1660e01b8152600401808573ffffffffffffffffffffffffffffffffffffffff1673ffffffffffffffffffffffffffffffffffffffff1681526020018473ffffffffffffffffffffffffffffffffffffffff1673ffffffffffffffffffffffffffffffffffffffff16815260200183815260200180602001828103825283818151815260200191508051906020019080838360005b8381101561287957808201518184015260208101905061285e565b50505050905090810190601f1680156128a65780820380516001836020036101000a031916815260200191505b5095505050505050602060405180830381600087803b1580156128c857600080fd5b505af11580156128dc573d6000803e3d6000fd5b505050506040513d60208110156128f257600080fd5b8101908080519060200190929190505050905063150b7a0260e01b7bffffffffffffffffffffffffffffffffffffffffffffffffffffffff1916817bffffffffffffffffffffffffffffffffffffffffffffffffffffffff1916149150505b949350505050565b60008083141561296c57600090506129d9565b600082840290508284828161297d57fe5b04146129d4576040517f08c379a00000000000000000000000000000000000000000000000000000000081526004018080602001828103825260218152602001806138426021913960400191505060405180910390fd5b809150505b92915050565b6129e98282612f30565b6129f38282612df9565b6129fc81613148565b5050565b8273ffffffffffffffffffffffffffffffffffffffff16612a20826119a6565b73ffffffffffffffffffffffffffffffffffffffff1614612a8c576040517f08c379a000000000000000000000000000000000000000000000000000000000815260040180806020018281038252602981526020018061388f6029913960400191505060405180910390fd5b600073ffffffffffffffffffffffffffffffffffffffff168273ffffffffffffffffffffffffffffffffffffffff161415612b12576040517f08c379a00000000000000000000000000000000000000000000000000000000081526004018080602001828103825260248152602001806137356024913960400191505060405180910390fd5b612b1b81613194565b612b62600360008573ffffffffffffffffffffffffffffffffffffffff1673ffffffffffffffffffffffffffffffffffffffff168152602001908152602001600020613252565b612ba9600360008473ffffffffffffffffffffffffffffffffffffffff1673ffffffffffffffffffffffffffffffffffffffff168152602001908152602001600020613275565b816001600083815260200190815260200160002060006101000a81548173ffffffffffffffffffffffffffffffffffffffff021916908373ffffffffffffffffffffffffffffffffffffffff160217905550808273ffffffffffffffffffffffffffffffffffffffff168473ffffffffffffffffffffffffffffffffffffffff167fddf252ad1be2c89b69c2b068fc378daa952ba7f163c4a11628f55a4df523b3ef60405160405180910390a4505050565b6000612cb36001600560008673ffffffffffffffffffffffffffffffffffffffff1673ffffffffffffffffffffffffffffffffffffffff1681526020019081526020016000208054905061328b90919063ffffffff16565b9050600060066000848152602001908152602001600020549050818114612da0576000600560008673ffffffffffffffffffffffffffffffffffffffff1673ffffffffffffffffffffffffffffffffffffffff1681526020019081526020016000208381548110612d2057fe5b9060005260206000200154905080600560008773ffffffffffffffffffffffffffffffffffffffff1673ffffffffffffffffffffffffffffffffffffffff1681526020019081526020016000208381548110612d7857fe5b9060005260206000200181905550816006600083815260200190815260200160002081905550505b600560008573ffffffffffffffffffffffffffffffffffffffff1673ffffffffffffffffffffffffffffffffffffffff168152602001908152602001600020805480919060019003612df29190613617565b5050505050565b600560008373ffffffffffffffffffffffffffffffffffffffff1673ffffffffffffffffffffffffffffffffffffffff168152602001908152602001600020805490506006600083815260200190815260200160002081905550600560008373ffffffffffffffffffffffffffffffffffffffff1673ffffffffffffffffffffffffffffffffffffffff1681526020019081526020016000208190806001815401808255809150509060018203906000526020600020016000909192909190915055505050565b612eca8282613314565b6000600b600083815260200190815260200160002080546001816001161561010002031660029004905014612f1957600b60008281526020019081526020016000206000612f189190613643565b5b5050565b600080823b905060008111915050919050565b600073ffffffffffffffffffffffffffffffffffffffff168273ffffffffffffffffffffffffffffffffffffffff161415612fd3576040517f08c379a00000000000000000000000000000000000000000000000000000000081526004018080602001828103825260208152602001807f4552433732313a206d696e7420746f20746865207a65726f206164647265737381525060200191505060405180910390fd5b612fdc8161257b565b1561304f576040517f08c379a000000000000000000000000000000000000000000000000000000000815260040180806020018281038252601c8152602001807f4552433732313a20746f6b656e20616c7265616479206d696e7465640000000081525060200191505060405180910390fd5b816001600083815260200190815260200160002060006101000a81548173ffffffffffffffffffffffffffffffffffffffff021916908373ffffffffffffffffffffffffffffffffffffffff1602179055506130e8600360008473ffffffffffffffffffffffffffffffffffffffff1673ffffffffffffffffffffffffffffffffffffffff168152602001908152602001600020613275565b808273ffffffffffffffffffffffffffffffffffffffff16600073ffffffffffffffffffffffffffffffffffffffff167fddf252ad1be2c89b69c2b068fc378daa952ba7f163c4a11628f55a4df523b3ef60405160405180910390a45050565b6007805490506008600083815260200190815260200160002081905550600781908060018154018082558091505090600182039060005260206000200160009091929091909150555050565b600073ffffffffffffffffffffffffffffffffffffffff166002600083815260200190815260200160002060009054906101000a900473ffffffffffffffffffffffffffffffffffffffff1673ffffffffffffffffffffffffffffffffffffffff161461324f5760006002600083815260200190815260200160002060006101000a81548173ffffffffffffffffffffffffffffffffffffffff021916908373ffffffffffffffffffffffffffffffffffffffff1602179055505b50565b61326a6001826000015461328b90919063ffffffff16565b816000018190555050565b6001816000016000828254019250508190555050565b600082821115613303576040517f08c379a000000000000000000000000000000000000000000000000000000000815260040180806020018281038252601e8152602001807f536166654d6174683a207375627472616374696f6e206f766572666c6f77000081525060200191505060405180910390fd5b600082840390508091505092915050565b61331e828261334e565b6133288282612c5b565b6000600660008381526020019081526020016000208190555061334a816134dd565b5050565b8173ffffffffffffffffffffffffffffffffffffffff1661336e826119a6565b73ffffffffffffffffffffffffffffffffffffffff16146133da576040517f08c379a00000000000000000000000000000000000000000000000000000000081526004018080602001828103825260258152602001806139be6025913960400191505060405180910390fd5b6133e381613194565b61342a600360008473ffffffffffffffffffffffffffffffffffffffff1673ffffffffffffffffffffffffffffffffffffffff168152602001908152602001600020613252565b60006001600083815260200190815260200160002060006101000a81548173ffffffffffffffffffffffffffffffffffffffff021916908373ffffffffffffffffffffffffffffffffffffffff16021790555080600073ffffffffffffffffffffffffffffffffffffffff168373ffffffffffffffffffffffffffffffffffffffff167fddf252ad1be2c89b69c2b068fc378daa952ba7f163c4a11628f55a4df523b3ef60405160405180910390a45050565b60006134f8600160078054905061328b90919063ffffffff16565b905060006008600084815260200190815260200160002054905060006007838154811061352157fe5b90600052602060002001549050806007838154811061353c57fe5b906000526020600020018190555081600860008381526020019081526020016000208190555060078054809190600190036135779190613617565b506000600860008681526020019081526020016000208190555050505050565b828054600181600116156101000203166002900490600052602060002090601f016020900481019282601f106135d857805160ff1916838001178555613606565b82800160010185558215613606579182015b828111156136055782518255916020019190600101906135ea565b5b509050613613919061368b565b5090565b81548183558181111561363e5781836000526020600020918201910161363d919061368b565b5b505050565b50805460018160011615610100020316600290046000825580601f106136695750613688565b601f016020900490600052602060002090810190613687919061368b565b5b50565b6136ad91905b808211156136a9576000816000905550600101613691565b5090565b9056fe6e6f7420656e6f756768207469636b6574207175616e7469747920617661696c61626c65212121455243373231456e756d657261626c653a206f776e657220696e646578206f7574206f6620626f756e64734552433732313a207472616e7366657220746f206e6f6e20455243373231526563656976657220696d706c656d656e7465724552433732313a207472616e7366657220746f20746865207a65726f20616464726573734552433732313a206f70657261746f7220717565727920666f72206e6f6e6578697374656e7420746f6b656e6f6e6c79206576656e74206f776e657220697320616c6c6f77656420746f20706572666f726d207468697320616374696f6e4552433732313a20617070726f76652063616c6c6572206973206e6f74206f776e6572206e6f7220617070726f76656420666f7220616c6c4552433732313a2062616c616e636520717565727920666f7220746865207a65726f20616464726573734552433732313a206f776e657220717565727920666f72206e6f6e6578697374656e7420746f6b656e536166654d6174683a206d756c7469706c69636174696f6e206f766572666c6f774552433732313a20617070726f76656420717565727920666f72206e6f6e6578697374656e7420746f6b656e4552433732313a207472616e73666572206f6620746f6b656e2074686174206973206e6f74206f776e726566756e64206973206f6e6c7920617661696c61626c6520666f7220636163616e63656c6564206576656e74734552433732314d657461646174613a2055524920717565727920666f72206e6f6e6578697374656e7420746f6b656e63616e206e6f74207075726368617365206d6f7265207468616e2035207469636b6574206174206f6e63654552433732313a20617070726f76616c20746f2063757272656e74206f776e65724552433732313a207472616e736665722063616c6c6572206973206e6f74206f776e6572206e6f7220617070726f766564455243373231456e756d657261626c653a20676c6f62616c20696e646578206f7574206f6620626f756e64734552433732313a206275726e206f6620746f6b656e2074686174206973206e6f74206f776ea265627a7a7231582090efb8eff668b418e3b8d23b57c8a83f6c2db4677a83533807bc6559dcff014764736f6c63430005100032a265627a7a7231582003a120efc6682720bda70aeb12e6feb49c2e64200600213e08d663f7e815fa3664736f6c63430005100032",
  "source": "pragma solidity ^0.5.0;\r\n\r\nimport \"./Event.sol\";\r\n\r\n/**\r\n@title Event factory */\r\ncontract EventFactory {\r\n\r\n\r\n        /**\r\n        @dev created and deployed new event and saves it in the event list array\r\n        @param _name title of the event to be created \r\n        @param start start date of event in unix timestamp\r\n        @param end end date of event in unix timestamp \r\n        @param supply total supply of event ticket available for the event\r\n        @param ticketPrice price of single ticket price in wei\r\n        @param description description of the event \r\n        @param location location of the event\r\n        @return emits eveneCreated log\r\n        */\r\n    bool private halted;\r\n    address private owner;\r\n\r\n    Event[] public deployedEvents;\r\n    event eventCreated(Event _address, string _name, uint _ticketPrice, string location, uint startDate, uint endDate, string indexed _filterName, string indexed _filterLocation);\r\n\r\n\r\n\r\n    function createEvent(string memory  _name, uint _start, uint _end,  uint supply, uint _ticketPrice, string memory _description, string memory _location) public  {\r\n        require(!halted);\r\n        address payable sender = msg.sender;\r\n        Event newEvent = new Event(sender, _name, _start, _end,_description, _location, supply, _ticketPrice );\r\n        deployedEvents.push(newEvent);\r\n        emit eventCreated(newEvent, _name, _ticketPrice, _location, _start, _end, _name, _location);\r\n\r\n    }\r\n\r\n    /**\r\n    @dev returns list of event addresses\r\n    @return deployedEvents array of event address */\r\n   function getDeployedEvents() public view returns(Event[] memory) {\r\n        return deployedEvents;\r\n    }\r\n\r\n\r\n\r\n    modifier onlyOwner {\r\n        require(msg.sender == owner, \"only the owner can perform this task\");\r\n        _;\r\n    }\r\n    \r\n    \r\n}",
  "sourcePath": "C:/Users/TJ/Desktop/UCSD_Bootcamp/Homework/Ticket_Bits/client/src/contracts/EventFactory.sol",
  "compiler": {
    "name": "solc",
    "version": "0.5.16+commit.9c3226ce.Emscripten.clang"
  },
  "schemaVersion": "3.3.4",
  "updatedAt": "2021-03-17T18:34:07.626Z",
  "networkType": "ethereum",
  "devdoc": {
    "methods": {
      "getDeployedEvents()": {
        "details": "returns list of event addresses",
        "return": "deployedEvents array of event address "
      }
    },
    "title": "Event factory "
  },
  "userdoc": {
    "methods": {}
  }
}