{
  "contractName": "Marketplace",
  "abi": [
    {
      "constant": true,
      "inputs": [],
      "name": "name",
      "outputs": [
        {
          "name": "",
          "type": "string"
        }
      ],
      "payable": false,
      "stateMutability": "view",
      "type": "function"
    },
    {
      "constant": true,
      "inputs": [
        {
          "name": "",
          "type": "uint256"
        }
      ],
      "name": "events",
      "outputs": [
        {
          "name": "id",
          "type": "uint256"
        },
        {
          "name": "name",
          "type": "string"
        },
        {
          "name": "price",
          "type": "uint256"
        },
        {
          "name": "startDate",
          "type": "string"
        },
        {
          "name": "location",
          "type": "string"
        },
        {
          "name": "description",
          "type": "string"
        },
        {
          "name": "quanity",
          "type": "uint256"
        },
        {
          "name": "owner",
          "type": "address"
        },
        {
          "name": "soldout",
          "type": "bool"
        }
      ],
      "payable": false,
      "stateMutability": "view",
      "type": "function"
    },
    {
      "constant": true,
      "inputs": [],
      "name": "availableTickets",
      "outputs": [
        {
          "name": "",
          "type": "uint256"
        }
      ],
      "payable": false,
      "stateMutability": "view",
      "type": "function"
    },
    {
      "constant": true,
      "inputs": [
        {
          "name": "",
          "type": "uint256"
        }
      ],
      "name": "tickets",
      "outputs": [
        {
          "name": "id",
          "type": "uint256"
        },
        {
          "name": "name",
          "type": "string"
        },
        {
          "name": "price",
          "type": "uint256"
        },
        {
          "name": "startDate",
          "type": "string"
        },
        {
          "name": "location",
          "type": "string"
        },
        {
          "name": "description",
          "type": "string"
        },
        {
          "name": "quanity",
          "type": "uint256"
        },
        {
          "name": "availableTickets",
          "type": "uint256"
        },
        {
          "name": "owner",
          "type": "address"
        },
        {
          "name": "purchased",
          "type": "bool"
        }
      ],
      "payable": false,
      "stateMutability": "view",
      "type": "function"
    },
    {
      "constant": true,
      "inputs": [],
      "name": "eventCount",
      "outputs": [
        {
          "name": "",
          "type": "uint256"
        }
      ],
      "payable": false,
      "stateMutability": "view",
      "type": "function"
    },
    {
      "constant": true,
      "inputs": [],
      "name": "ticketCount",
      "outputs": [
        {
          "name": "",
          "type": "uint256"
        }
      ],
      "payable": false,
      "stateMutability": "view",
      "type": "function"
    },
    {
      "constant": true,
      "inputs": [],
      "name": "availableEventTickets",
      "outputs": [
        {
          "name": "",
          "type": "uint256"
        }
      ],
      "payable": false,
      "stateMutability": "view",
      "type": "function"
    },
    {
      "inputs": [],
      "payable": false,
      "stateMutability": "nonpayable",
      "type": "constructor"
    },
    {
      "anonymous": false,
      "inputs": [
        {
          "indexed": false,
          "name": "id",
          "type": "uint256"
        },
        {
          "indexed": false,
          "name": "name",
          "type": "string"
        },
        {
          "indexed": false,
          "name": "price",
          "type": "uint256"
        },
        {
          "indexed": false,
          "name": "startDate",
          "type": "string"
        },
        {
          "indexed": false,
          "name": "location",
          "type": "string"
        },
        {
          "indexed": false,
          "name": "description",
          "type": "string"
        },
        {
          "indexed": false,
          "name": "quanity",
          "type": "uint256"
        },
        {
          "indexed": false,
          "name": "availableTickets",
          "type": "uint256"
        },
        {
          "indexed": false,
          "name": "owner",
          "type": "address"
        },
        {
          "indexed": false,
          "name": "purchased",
          "type": "bool"
        }
      ],
      "name": "AddTicket",
      "type": "event"
    },
    {
      "anonymous": false,
      "inputs": [
        {
          "indexed": false,
          "name": "id",
          "type": "uint256"
        },
        {
          "indexed": false,
          "name": "name",
          "type": "string"
        },
        {
          "indexed": false,
          "name": "price",
          "type": "uint256"
        },
        {
          "indexed": false,
          "name": "quanity",
          "type": "uint256"
        },
        {
          "indexed": false,
          "name": "owner",
          "type": "address"
        },
        {
          "indexed": false,
          "name": "purchased",
          "type": "bool"
        }
      ],
      "name": "TicketPurchased",
      "type": "event"
    },
    {
      "anonymous": false,
      "inputs": [
        {
          "indexed": false,
          "name": "id",
          "type": "uint256"
        },
        {
          "indexed": false,
          "name": "name",
          "type": "string"
        },
        {
          "indexed": false,
          "name": "price",
          "type": "uint256"
        },
        {
          "indexed": false,
          "name": "startDate",
          "type": "string"
        },
        {
          "indexed": false,
          "name": "location",
          "type": "string"
        },
        {
          "indexed": false,
          "name": "description",
          "type": "string"
        },
        {
          "indexed": false,
          "name": "quanity",
          "type": "uint256"
        },
        {
          "indexed": false,
          "name": "owner",
          "type": "address"
        }
      ],
      "name": "EventCreated",
      "type": "event"
    },
    {
      "anonymous": false,
      "inputs": [
        {
          "indexed": false,
          "name": "id",
          "type": "uint256"
        },
        {
          "indexed": false,
          "name": "ticketId",
          "type": "uint256"
        },
        {
          "indexed": false,
          "name": "name",
          "type": "string"
        },
        {
          "indexed": false,
          "name": "price",
          "type": "uint256"
        },
        {
          "indexed": false,
          "name": "quanity",
          "type": "uint256"
        },
        {
          "indexed": false,
          "name": "owner",
          "type": "address"
        },
        {
          "indexed": false,
          "name": "soldout",
          "type": "bool"
        }
      ],
      "name": "EventTicketPurchased",
      "type": "event"
    },
    {
      "constant": false,
      "inputs": [
        {
          "name": "_name",
          "type": "string"
        },
        {
          "name": "_price",
          "type": "uint256"
        },
        {
          "name": "_startDate",
          "type": "string"
        },
        {
          "name": "_location",
          "type": "string"
        },
        {
          "name": "_description",
          "type": "string"
        },
        {
          "name": "_quanity",
          "type": "uint256"
        }
      ],
      "name": "eventCreated",
      "outputs": [],
      "payable": false,
      "stateMutability": "nonpayable",
      "type": "function"
    },
    {
      "constant": false,
      "inputs": [
        {
          "name": "_id",
          "type": "uint256"
        },
        {
          "name": "_quantity",
          "type": "uint256"
        }
      ],
      "name": "purchaseEventTicket",
      "outputs": [],
      "payable": true,
      "stateMutability": "payable",
      "type": "function"
    },
    {
      "constant": false,
      "inputs": [
        {
          "name": "_name",
          "type": "string"
        },
        {
          "name": "_price",
          "type": "uint256"
        },
        {
          "name": "_startDate",
          "type": "string"
        },
        {
          "name": "_location",
          "type": "string"
        },
        {
          "name": "_description",
          "type": "string"
        },
        {
          "name": "_quanity",
          "type": "uint256"
        },
        {
          "name": "_availableTickets",
          "type": "uint256"
        }
      ],
      "name": "addTicket",
      "outputs": [],
      "payable": false,
      "stateMutability": "nonpayable",
      "type": "function"
    },
    {
      "constant": false,
      "inputs": [
        {
          "name": "_id",
          "type": "uint256"
        },
        {
          "name": "_quantity",
          "type": "uint256"
        }
      ],
      "name": "purchaseTicket",
      "outputs": [],
      "payable": true,
      "stateMutability": "payable",
      "type": "function"
    }
  ],
  "bytecode": "0x6080604052600060035560006004553480156200001b57600080fd5b506040805190810160405280600b81526020017f4d61726b6574706c616365000000000000000000000000000000000000000000815250600090805190602001906200006992919062000070565b506200011f565b828054600181600116156101000203166002900490600052602060002090601f016020900481019282601f10620000b357805160ff1916838001178555620000e4565b82800160010185558215620000e4579182015b82811115620000e3578251825591602001919060010190620000c6565b5b509050620000f39190620000f7565b5090565b6200011c91905b8082111562000118576000816000905550600101620000fe565b5090565b90565b612c1f806200012f6000396000f3fe6080604052600436106100af576000357c0100000000000000000000000000000000000000000000000000000000900463ffffffff16806306fdde03146100b45780630b791430146101445780633cfa7e011461038f57806350b44712146103ba57806371be2e4a1461060c5780637b1523091461063757806399b4522d1461066f578063bdbbb0cb1461091a578063cfbd900f14610952578063dd04f0611461097d578063f5c7ab4114610c1e575b600080fd5b3480156100c057600080fd5b506100c9610c49565b6040518080602001828103825283818151815260200191508051906020019080838360005b838110156101095780820151818401526020810190506100ee565b50505050905090810190601f1680156101365780820380516001836020036101000a031916815260200191505b509250505060405180910390f35b34801561015057600080fd5b5061017d6004803603602081101561016757600080fd5b8101908080359060200190929190505050610ce7565b604051808a8152602001806020018981526020018060200180602001806020018881526020018773ffffffffffffffffffffffffffffffffffffffff1673ffffffffffffffffffffffffffffffffffffffff1681526020018615151515815260200185810385528d818151815260200191508051906020019080838360005b838110156102175780820151818401526020810190506101fc565b50505050905090810190601f1680156102445780820380516001836020036101000a031916815260200191505b5085810384528b818151815260200191508051906020019080838360005b8381101561027d578082015181840152602081019050610262565b50505050905090810190601f1680156102aa5780820380516001836020036101000a031916815260200191505b5085810383528a818151815260200191508051906020019080838360005b838110156102e35780820151818401526020810190506102c8565b50505050905090810190601f1680156103105780820380516001836020036101000a031916815260200191505b50858103825289818151815260200191508051906020019080838360005b8381101561034957808201518184015260208101905061032e565b50505050905090810190601f1680156103765780820380516001836020036101000a031916815260200191505b509d505050505050505050505050505060405180910390f35b34801561039b57600080fd5b506103a4610fc2565b6040518082815260200191505060405180910390f35b3480156103c657600080fd5b506103f3600480360360208110156103dd57600080fd5b8101908080359060200190929190505050610fc8565b604051808b8152602001806020018a81526020018060200180602001806020018981526020018881526020018773ffffffffffffffffffffffffffffffffffffffff1673ffffffffffffffffffffffffffffffffffffffff1681526020018615151515815260200185810385528e818151815260200191508051906020019080838360005b83811015610493578082015181840152602081019050610478565b50505050905090810190601f1680156104c05780820380516001836020036101000a031916815260200191505b5085810384528c818151815260200191508051906020019080838360005b838110156104f95780820151818401526020810190506104de565b50505050905090810190601f1680156105265780820380516001836020036101000a031916815260200191505b5085810383528b818151815260200191508051906020019080838360005b8381101561055f578082015181840152602081019050610544565b50505050905090810190601f16801561058c5780820380516001836020036101000a031916815260200191505b5085810382528a818151815260200191508051906020019080838360005b838110156105c55780820151818401526020810190506105aa565b50505050905090810190601f1680156105f25780820380516001836020036101000a031916815260200191505b509e50505050505050505050505050505060405180910390f35b34801561061857600080fd5b506106216112a9565b6040518082815260200191505060405180910390f35b61066d6004803603604081101561064d57600080fd5b8101908080359060200190929190803590602001909291905050506112af565b005b34801561067b57600080fd5b50610918600480360360e081101561069257600080fd5b81019080803590602001906401000000008111156106af57600080fd5b8201836020820111156106c157600080fd5b803590602001918460018302840111640100000000831117156106e357600080fd5b91908080601f016020809104026020016040519081016040528093929190818152602001838380828437600081840152601f19601f820116905080830192505050505050509192919290803590602001909291908035906020019064010000000081111561075057600080fd5b82018360208201111561076257600080fd5b8035906020019184600183028401116401000000008311171561078457600080fd5b91908080601f016020809104026020016040519081016040528093929190818152602001838380828437600081840152601f19601f820116905080830192505050505050509192919290803590602001906401000000008111156107e757600080fd5b8201836020820111156107f957600080fd5b8035906020019184600183028401116401000000008311171561081b57600080fd5b91908080601f016020809104026020016040519081016040528093929190818152602001838380828437600081840152601f19601f8201169050808301925050505050505091929192908035906020019064010000000081111561087e57600080fd5b82018360208201111561089057600080fd5b803590602001918460018302840111640100000000831117156108b257600080fd5b91908080601f016020809104026020016040519081016040528093929190818152602001838380828437600081840152601f19601f8201169050808301925050505050505091929192908035906020019092919080359060200190929190505050611a59565b005b6109506004803603604081101561093057600080fd5b810190808035906020019092919080359060200190929190505050611e9c565b005b34801561095e57600080fd5b5061096761266a565b6040518082815260200191505060405180910390f35b34801561098957600080fd5b50610c1c600480360360c08110156109a057600080fd5b81019080803590602001906401000000008111156109bd57600080fd5b8201836020820111156109cf57600080fd5b803590602001918460018302840111640100000000831117156109f157600080fd5b91908080601f016020809104026020016040519081016040528093929190818152602001838380828437600081840152601f19601f8201169050808301925050505050505091929192908035906020019092919080359060200190640100000000811115610a5e57600080fd5b820183602082011115610a7057600080fd5b80359060200191846001830284011164010000000083111715610a9257600080fd5b91908080601f016020809104026020016040519081016040528093929190818152602001838380828437600081840152601f19601f82011690508083019250505050505050919291929080359060200190640100000000811115610af557600080fd5b820183602082011115610b0757600080fd5b80359060200191846001830284011164010000000083111715610b2957600080fd5b91908080601f016020809104026020016040519081016040528093929190818152602001838380828437600081840152601f19601f82011690508083019250505050505050919291929080359060200190640100000000811115610b8c57600080fd5b820183602082011115610b9e57600080fd5b80359060200191846001830284011164010000000083111715610bc057600080fd5b91908080601f016020809104026020016040519081016040528093929190818152602001838380828437600081840152601f19601f82011690508083019250505050505050919291929080359060200190929190505050612670565b005b348015610c2a57600080fd5b50610c33612a77565b6040518082815260200191505060405180910390f35b60008054600181600116156101000203166002900480601f016020809104026020016040519081016040528092919081815260200182805460018160011615610100020316600290048015610cdf5780601f10610cb457610100808354040283529160200191610cdf565b820191906000526020600020905b815481529060010190602001808311610cc257829003601f168201915b505050505081565b6005602052806000526040600020600091509050806000015490806001018054600181600116156101000203166002900480601f016020809104026020016040519081016040528092919081815260200182805460018160011615610100020316600290048015610d995780601f10610d6e57610100808354040283529160200191610d99565b820191906000526020600020905b815481529060010190602001808311610d7c57829003601f168201915b505050505090806002015490806003018054600181600116156101000203166002900480601f016020809104026020016040519081016040528092919081815260200182805460018160011615610100020316600290048015610e3d5780601f10610e1257610100808354040283529160200191610e3d565b820191906000526020600020905b815481529060010190602001808311610e2057829003601f168201915b505050505090806004018054600181600116156101000203166002900480601f016020809104026020016040519081016040528092919081815260200182805460018160011615610100020316600290048015610edb5780601f10610eb057610100808354040283529160200191610edb565b820191906000526020600020905b815481529060010190602001808311610ebe57829003601f168201915b505050505090806005018054600181600116156101000203166002900480601f016020809104026020016040519081016040528092919081815260200182805460018160011615610100020316600290048015610f795780601f10610f4e57610100808354040283529160200191610f79565b820191906000526020600020905b815481529060010190602001808311610f5c57829003601f168201915b5050505050908060060154908060070160009054906101000a900473ffffffffffffffffffffffffffffffffffffffff16908060070160149054906101000a900460ff16905089565b60015481565b6006602052806000526040600020600091509050806000015490806001018054600181600116156101000203166002900480601f01602080910402602001604051908101604052809291908181526020018280546001816001161561010002031660029004801561107a5780601f1061104f5761010080835404028352916020019161107a565b820191906000526020600020905b81548152906001019060200180831161105d57829003601f168201915b505050505090806002015490806003018054600181600116156101000203166002900480601f01602080910402602001604051908101604052809291908181526020018280546001816001161561010002031660029004801561111e5780601f106110f35761010080835404028352916020019161111e565b820191906000526020600020905b81548152906001019060200180831161110157829003601f168201915b505050505090806004018054600181600116156101000203166002900480601f0160208091040260200160405190810160405280929190818152602001828054600181600116156101000203166002900480156111bc5780601f10611191576101008083540402835291602001916111bc565b820191906000526020600020905b81548152906001019060200180831161119f57829003601f168201915b505050505090806005018054600181600116156101000203166002900480601f01602080910402602001604051908101604052809291908181526020018280546001816001161561010002031660029004801561125a5780601f1061122f5761010080835404028352916020019161125a565b820191906000526020600020905b81548152906001019060200180831161123d57829003601f168201915b5050505050908060060154908060070154908060080160009054906101000a900473ffffffffffffffffffffffffffffffffffffffff16908060080160149054906101000a900460ff1690508a565b60045481565b6112b7612a7d565b60056000848152602001908152602001600020610120604051908101604052908160008201548152602001600182018054600181600116156101000203166002900480601f01602080910402602001604051908101604052809291908181526020018280546001816001161561010002031660029004801561137a5780601f1061134f5761010080835404028352916020019161137a565b820191906000526020600020905b81548152906001019060200180831161135d57829003601f168201915b5050505050815260200160028201548152602001600382018054600181600116156101000203166002900480601f0160208091040260200160405190810160405280929190818152602001828054600181600116156101000203166002900480156114265780601f106113fb57610100808354040283529160200191611426565b820191906000526020600020905b81548152906001019060200180831161140957829003601f168201915b50505050508152602001600482018054600181600116156101000203166002900480601f0160208091040260200160405190810160405280929190818152602001828054600181600116156101000203166002900480156114c85780601f1061149d576101008083540402835291602001916114c8565b820191906000526020600020905b8154815290600101906020018083116114ab57829003601f168201915b50505050508152602001600582018054600181600116156101000203166002900480601f01602080910402602001604051908101604052809291908181526020018280546001816001161561010002031660029004801561156a5780601f1061153f5761010080835404028352916020019161156a565b820191906000526020600020905b81548152906001019060200180831161154d57829003601f168201915b50505050508152602001600682015481526020016007820160009054906101000a900473ffffffffffffffffffffffffffffffffffffffff1673ffffffffffffffffffffffffffffffffffffffff1673ffffffffffffffffffffffffffffffffffffffff1681526020016007820160149054906101000a900460ff161515151581525050905060008160e0015190508160400151341015151561160c57600080fd5b82826040015102341015151561168a576040517f08c379a00000000000000000000000000000000000000000000000000000000081526004018080602001828103825260158152602001807f6e6f7420656e6f756768206d6f6e65792073656e74000000000000000000000081525060200191505060405180910390fd5b3373ffffffffffffffffffffffffffffffffffffffff168173ffffffffffffffffffffffffffffffffffffffff16141515156116c557600080fd5b8260025410151515611765576040517f08c379a00000000000000000000000000000000000000000000000000000000081526004018080602001828103825260248152602001807f6e6f7420656e6f756768207469636b6574207175616e7469747920617661696c81526020017f61626c650000000000000000000000000000000000000000000000000000000081525060400191505060405180910390fd5b600080600090505b848160ff161015611796578180600101925050848060019003955050808060010191505061176d565b50338360e0019073ffffffffffffffffffffffffffffffffffffffff16908173ffffffffffffffffffffffffffffffffffffffff168152505060008414156117eb576001836101000190151590811515815250505b8260056000878152602001908152602001600020600082015181600001556020820151816001019080519060200190611825929190612ae2565b5060408201518160020155606082015181600301908051906020019061184c929190612ae2565b506080820151816004019080519060200190611869929190612ae2565b5060a0820151816005019080519060200190611886929190612ae2565b5060c0820151816006015560e08201518160070160006101000a81548173ffffffffffffffffffffffffffffffffffffffff021916908373ffffffffffffffffffffffffffffffffffffffff1602179055506101008201518160070160146101000a81548160ff0219169083151502179055509050508173ffffffffffffffffffffffffffffffffffffffff166108fc349081150290604051600060405180830381858888f19350505050158015611942573d6000803e3d6000fd5b507f1dd82c9636dd1b52c77ff65cffc6025a45391d86cc0082519b023c58122ae1c560045482856020015186604001518760c001513389610100015160405180888152602001878152602001806020018681526020018581526020018473ffffffffffffffffffffffffffffffffffffffff1673ffffffffffffffffffffffffffffffffffffffff16815260200183151515158152602001828103825287818151815260200191508051906020019080838360005b83811015611a125780820151818401526020810190506119f7565b50505050905090810190601f168015611a3f5780820380516001836020036101000a031916815260200191505b509850505050505050505060405180910390a15050505050565b60008751111515611a6957600080fd5b600086111515611a7857600080fd5b60008551111515611a8857600080fd5b60008451111515611a9857600080fd5b60008351111515611aa857600080fd5b600082111515611ab757600080fd5b60015491506003600081548092919060010191905055506101406040519081016040528060035481526020018881526020018781526020018681526020018581526020018481526020018381526020018281526020013373ffffffffffffffffffffffffffffffffffffffff16815260200160001515815250600660006003548152602001908152602001600020600082015181600001556020820151816001019080519060200190611b6b929190612ae2565b50604082015181600201556060820151816003019080519060200190611b92929190612ae2565b506080820151816004019080519060200190611baf929190612ae2565b5060a0820151816005019080519060200190611bcc929190612ae2565b5060c0820151816006015560e082015181600701556101008201518160080160006101000a81548173ffffffffffffffffffffffffffffffffffffffff021916908373ffffffffffffffffffffffffffffffffffffffff1602179055506101208201518160080160146101000a81548160ff0219169083151502179055509050507f504b19e38e1fbc109ce41d1003138aac47d3e3a34e101f4aa658d86692baf29c60035488888888888888336000604051808b8152602001806020018a81526020018060200180602001806020018981526020018881526020018773ffffffffffffffffffffffffffffffffffffffff1673ffffffffffffffffffffffffffffffffffffffff1681526020018615151515815260200185810385528e818151815260200191508051906020019080838360005b83811015611d1b578082015181840152602081019050611d00565b50505050905090810190601f168015611d485780820380516001836020036101000a031916815260200191505b5085810384528c818151815260200191508051906020019080838360005b83811015611d81578082015181840152602081019050611d66565b50505050905090810190601f168015611dae5780820380516001836020036101000a031916815260200191505b5085810383528b818151815260200191508051906020019080838360005b83811015611de7578082015181840152602081019050611dcc565b50505050905090810190601f168015611e145780820380516001836020036101000a031916815260200191505b5085810382528a818151815260200191508051906020019080838360005b83811015611e4d578082015181840152602081019050611e32565b50505050905090810190601f168015611e7a5780820380516001836020036101000a031916815260200191505b509e50505050505050505050505050505060405180910390a150505050505050565b611ea4612b62565b60066000848152602001908152602001600020610140604051908101604052908160008201548152602001600182018054600181600116156101000203166002900480601f016020809104026020016040519081016040528092919081815260200182805460018160011615610100020316600290048015611f675780601f10611f3c57610100808354040283529160200191611f67565b820191906000526020600020905b815481529060010190602001808311611f4a57829003601f168201915b5050505050815260200160028201548152602001600382018054600181600116156101000203166002900480601f0160208091040260200160405190810160405280929190818152602001828054600181600116156101000203166002900480156120135780601f10611fe857610100808354040283529160200191612013565b820191906000526020600020905b815481529060010190602001808311611ff657829003601f168201915b50505050508152602001600482018054600181600116156101000203166002900480601f0160208091040260200160405190810160405280929190818152602001828054600181600116156101000203166002900480156120b55780601f1061208a576101008083540402835291602001916120b5565b820191906000526020600020905b81548152906001019060200180831161209857829003601f168201915b50505050508152602001600582018054600181600116156101000203166002900480601f0160208091040260200160405190810160405280929190818152602001828054600181600116156101000203166002900480156121575780601f1061212c57610100808354040283529160200191612157565b820191906000526020600020905b81548152906001019060200180831161213a57829003601f168201915b5050505050815260200160068201548152602001600782015481526020016008820160009054906101000a900473ffffffffffffffffffffffffffffffffffffffff1673ffffffffffffffffffffffffffffffffffffffff1673ffffffffffffffffffffffffffffffffffffffff1681526020016008820160149054906101000a900460ff1615151515815250509050600081610100015190506000826000015111801561220b5750600354826000015111155b151561221657600080fd5b828260400151023410151515612294576040517f08c379a00000000000000000000000000000000000000000000000000000000081526004018080602001828103825260158152602001807f6e6f7420656e6f756768206d6f6e65792073656e74000000000000000000000081525060200191505060405180910390fd5b8161012001511515156122a657600080fd5b3373ffffffffffffffffffffffffffffffffffffffff168173ffffffffffffffffffffffffffffffffffffffff16141515156122e157600080fd5b8260015410151515612381576040517f08c379a00000000000000000000000000000000000000000000000000000000081526004018080602001828103825260248152602001807f6e6f7420656e6f756768207469636b6574207175616e7469747920617661696c81526020017f61626c650000000000000000000000000000000000000000000000000000000081525060400191505060405180910390fd5b60008090505b838160ff1610156123b257600160008154809291906001900391905055508080600101915050612387565b503382610100019073ffffffffffffffffffffffffffffffffffffffff16908173ffffffffffffffffffffffffffffffffffffffff16815250506001826101200190151590811515815250508160066000868152602001908152602001600020600082015181600001556020820151816001019080519060200190612438929190612ae2565b5060408201518160020155606082015181600301908051906020019061245f929190612ae2565b50608082015181600401908051906020019061247c929190612ae2565b5060a0820151816005019080519060200190612499929190612ae2565b5060c0820151816006015560e082015181600701556101008201518160080160006101000a81548173ffffffffffffffffffffffffffffffffffffffff021916908373ffffffffffffffffffffffffffffffffffffffff1602179055506101208201518160080160146101000a81548160ff0219169083151502179055509050508073ffffffffffffffffffffffffffffffffffffffff166108fc349081150290604051600060405180830381858888f19350505050158015612560573d6000803e3d6000fd5b507f9b4b5ccefdb7bd08686b65bbae7b698bb93a97915079a5d74d6b3ecd4336146f600354836020015184604001518560c0015133600160405180878152602001806020018681526020018581526020018473ffffffffffffffffffffffffffffffffffffffff1673ffffffffffffffffffffffffffffffffffffffff16815260200183151515158152602001828103825287818151815260200191508051906020019080838360005b8381101561262557808201518184015260208101905061260a565b50505050905090810190601f1680156126525780820380516001836020036101000a031916815260200191505b5097505050505050505060405180910390a150505050565b60035481565b6000865111151561268057600080fd5b60008511151561268f57600080fd5b6000845111151561269f57600080fd5b600083511115156126af57600080fd5b6000811115156126be57600080fd5b6004600081548092919060010191905055506101206040519081016040528060045481526020018781526020018681526020018581526020018481526020018381526020018281526020013373ffffffffffffffffffffffffffffffffffffffff16815260200160001515815250600560006004548152602001908152602001600020600082015181600001556020820151816001019080519060200190612767929190612ae2565b5060408201518160020155606082015181600301908051906020019061278e929190612ae2565b5060808201518160040190805190602001906127ab929190612ae2565b5060a08201518160050190805190602001906127c8929190612ae2565b5060c0820151816006015560e08201518160070160006101000a81548173ffffffffffffffffffffffffffffffffffffffff021916908373ffffffffffffffffffffffffffffffffffffffff1602179055506101008201518160070160146101000a81548160ff0219169083151502179055509050507f1f86c01a5b54c9704e79a4c5c74e7eafddc32d4b138a6b1ffc1b54cae0e20de56004548787878787873360405180898152602001806020018881526020018060200180602001806020018781526020018673ffffffffffffffffffffffffffffffffffffffff1673ffffffffffffffffffffffffffffffffffffffff16815260200185810385528c818151815260200191508051906020019080838360005b838110156128f95780820151818401526020810190506128de565b50505050905090810190601f1680156129265780820380516001836020036101000a031916815260200191505b5085810384528a818151815260200191508051906020019080838360005b8381101561295f578082015181840152602081019050612944565b50505050905090810190601f16801561298c5780820380516001836020036101000a031916815260200191505b50858103835289818151815260200191508051906020019080838360005b838110156129c55780820151818401526020810190506129aa565b50505050905090810190601f1680156129f25780820380516001836020036101000a031916815260200191505b50858103825288818151815260200191508051906020019080838360005b83811015612a2b578082015181840152602081019050612a10565b50505050905090810190601f168015612a585780820380516001836020036101000a031916815260200191505b509c5050505050505050505050505060405180910390a1505050505050565b60025481565b6101206040519081016040528060008152602001606081526020016000815260200160608152602001606081526020016060815260200160008152602001600073ffffffffffffffffffffffffffffffffffffffff1681526020016000151581525090565b828054600181600116156101000203166002900490600052602060002090601f016020900481019282601f10612b2357805160ff1916838001178555612b51565b82800160010185558215612b51579182015b82811115612b50578251825591602001919060010190612b35565b5b509050612b5e9190612bce565b5090565b610140604051908101604052806000815260200160608152602001600081526020016060815260200160608152602001606081526020016000815260200160008152602001600073ffffffffffffffffffffffffffffffffffffffff1681526020016000151581525090565b612bf091905b80821115612bec576000816000905550600101612bd4565b5090565b9056fea165627a7a7230582081f9ef98caf90915bdbce725233d8dd78fb965c00f4ad07808887388a241e5390029",
  "source": "pragma solidity ^0.5.0;\n\n\ncontract Marketplace {\n    string public name;\n    uint256 public availableTickets;\n    uint256 public availableEventTickets;\n    uint public ticketCount = 0;\n    uint public eventCount = 0;\n    mapping (uint => Event) public events;\n    mapping(uint => Ticket) public tickets;\n\n    struct Event {\n        uint id;\n        string name;\n        uint price;\n        string startDate;\n        string location;\n        string description;\n        uint quanity;\n        address payable owner;\n        bool soldout;\n    }\n\n    struct Ticket {\n        uint id;\n        string name;\n        uint price;\n        string startDate;\n        string location;\n        string description;\n        uint quanity;\n        uint availableTickets;\n        address payable owner;\n        bool purchased;\n    }\n\n    event AddTicket (\n        uint id,\n        string name,\n        uint price,\n        string startDate,\n        string location,\n        string description,\n        uint quanity,\n        uint availableTickets,\n        address payable owner,\n        bool purchased\n    );\n\n    event TicketPurchased(\n        uint id,\n        string name,\n        uint price,\n        uint quanity,\n        address payable owner,\n        bool purchased\n    );\n\n    event EventCreated (\n        uint id,\n        string name,\n        uint price,\n        string startDate,\n        string location,\n        string description,\n        uint quanity,\n        address payable owner\n    );\n\n    event EventTicketPurchased(\n        uint id,\n        uint ticketId,\n        string name,\n        uint price,\n        uint quanity,\n        address payable owner,\n        bool soldout\n    );\n\n    constructor() public {\n        name = \"Marketplace\";\n    }\n\n    function eventCreated(string memory _name, uint _price, string memory _startDate, string memory _location, string memory _description, uint _quanity) public {\n        //Require a valid name\n        require(bytes(_name).length > 0);\n        // Reuire a valid price\n        require(_price > 0);\n        //Require a start date\n        require(bytes(_startDate).length > 0);\n        //Require a location\n        require(bytes(_location).length > 0);\n        // Require a quanity\n        require(_quanity > 0);\n\n        eventCount ++;\n\n        events[eventCount] = Event(eventCount, _name, _price, _startDate, _location, _description, _quanity, msg.sender, false);\n\n        emit EventCreated(eventCount, _name, _price, _startDate, _location, _description, _quanity, msg.sender);\n\n    }\n\n    function purchaseEventTicket(uint _id, uint _quantity) public payable {\n        // Fetch the product\n        Event memory _event = events[_id];\n        // Fetch the owner\n        address payable _seller = _event.owner;\n        // Require that there is enough Ether in the transaction\n        require(msg.value >= _event.price);\n        // Require that the ticket has not been purchased already\n        require(msg.value >= (_event.price) * (_quantity), \"not enough money sent\");\n        // Require that the buyer is not the seller\n        require(_seller != msg.sender);\n        // Transfer ownership to the buyer\n        require(availableEventTickets >= _quantity, \"not enough ticket quantity available\");\n\n        uint _ticketId;\n\n        for(uint8 i = 0; i < _quantity; i++) {\n            _ticketId++;\n            _quantity--;\n        }\n        _event.owner = msg.sender;\n        // Mark as soldout\n        if(_quantity == 0){\n        _event.soldout = true;\n        }\n        // Update the ticket\n        events[_id] = _event;\n        // Pay the seller by sending them Ether\n        address(_seller).transfer(msg.value);\n        //Trigger an event\n         emit EventTicketPurchased(eventCount, _ticketId, _event.name, _event.price, _event.quanity, msg.sender,_event.soldout);\n    }\n\n    function addTicket(string memory _name, uint _price, string memory _startDate, string memory _location, string memory _description, uint _quanity, uint _availableTickets) public {\n        //Require a valid name\n        require(bytes(_name).length > 0);\n        // Reuire a valid price\n        require(_price > 0);\n        //Require a start date\n        require(bytes(_startDate).length > 0);\n        //Require a location\n        require(bytes(_location).length > 0);\n        //Require a description\n        require(bytes(_description).length > 0);\n        //Require a quanity \n        require(_quanity > 0);\n        //\n        // Make sure parameters are correct\n        // Increment Ticket count\n        _quanity = availableTickets;\n        ticketCount ++;\n        //\n        //Create the ticket\n        tickets[ticketCount] = Ticket(ticketCount, _name, _price, _startDate, _location, _description, _quanity, _availableTickets, msg.sender, false);\n        //Trigger an event\n        emit AddTicket(ticketCount, _name, _price, _startDate, _location, _description, _quanity, _availableTickets, msg.sender, false);\n    }\n\n    function purchaseTicket(uint _id, uint _quantity) public payable {\n        // Fetch the product\n        Ticket memory _ticket = tickets[_id];\n        // Fetch the owner\n        address payable _seller = _ticket.owner;\n        // Make sure the ticket has a valid id\n        require(_ticket.id > 0 && _ticket.id <= ticketCount);\n        // Require that there is enough Ether in the transaction\n        require(msg.value >= (_ticket.price) * (_quantity), \"not enough money sent\");\n        // Require that the ticket has not been purchased already\n        require(!_ticket.purchased);\n        // Require that the buyer is not the seller\n        require(_seller != msg.sender);\n        // Transfer ownership to the buyer\n        require(availableTickets >= _quantity, \"not enough ticket quantity available\");\n\n        for(uint8 i = 0; i < _quantity; i++) {\n            availableTickets--;\n        }\n        _ticket.owner = msg.sender;\n        // Mark as purchased\n        _ticket.purchased = true;\n        // Update the ticket\n        tickets[_id] = _ticket;\n        // Pay the seller by sending them Ether\n        address(_seller).transfer(msg.value);\n        //Trigger an event\n         emit TicketPurchased(ticketCount, _ticket.name, _ticket.price, _ticket.quanity, msg.sender, true);\n    }\n}",
  "sourcePath": "C:/Users/TJ/Desktop/UCSD_Bootcamp/Homework/Ticket_Bits/client/src/contracts/Marketplace.sol",
  "compiler": {
    "name": "solc",
    "version": "0.5.0+commit.1d4f565a.Emscripten.clang"
  },
  "schemaVersion": "3.3.4",
  "updatedAt": "2021-03-21T02:30:47.213Z",
  "networkType": "ethereum",
  "devdoc": {
    "methods": {}
  },
  "userdoc": {
    "methods": {}
  }
}