{
  "contractName": "Marketplace",
  "abi": [
    {
      "constant": true,
      "inputs": [],
      "name": "name",
      "outputs": [
        {
          "name": "",
          "type": "string"
        }
      ],
      "payable": false,
      "stateMutability": "view",
      "type": "function"
    },
    {
      "constant": true,
      "inputs": [
        {
          "name": "",
          "type": "uint256"
        }
      ],
      "name": "tickets",
      "outputs": [
        {
          "name": "id",
          "type": "uint256"
        },
        {
          "name": "name",
          "type": "string"
        },
        {
          "name": "price",
          "type": "uint256"
        },
        {
          "name": "startDate",
          "type": "string"
        },
        {
          "name": "location",
          "type": "string"
        },
        {
          "name": "description",
          "type": "string"
        },
        {
          "name": "owner",
          "type": "address"
        },
        {
          "name": "purchased",
          "type": "bool"
        }
      ],
      "payable": false,
      "stateMutability": "view",
      "type": "function"
    },
    {
      "constant": true,
      "inputs": [],
      "name": "ticketCount",
      "outputs": [
        {
          "name": "",
          "type": "uint256"
        }
      ],
      "payable": false,
      "stateMutability": "view",
      "type": "function"
    },
    {
      "inputs": [],
      "payable": false,
      "stateMutability": "nonpayable",
      "type": "constructor"
    },
    {
      "anonymous": false,
      "inputs": [
        {
          "indexed": false,
          "name": "id",
          "type": "uint256"
        },
        {
          "indexed": false,
          "name": "name",
          "type": "string"
        },
        {
          "indexed": false,
          "name": "price",
          "type": "uint256"
        },
        {
          "indexed": false,
          "name": "startDate",
          "type": "string"
        },
        {
          "indexed": false,
          "name": "location",
          "type": "string"
        },
        {
          "indexed": false,
          "name": "description",
          "type": "string"
        },
        {
          "indexed": false,
          "name": "owner",
          "type": "address"
        },
        {
          "indexed": false,
          "name": "purchased",
          "type": "bool"
        }
      ],
      "name": "TicketCreated",
      "type": "event"
    },
    {
      "anonymous": false,
      "inputs": [
        {
          "indexed": false,
          "name": "id",
          "type": "uint256"
        },
        {
          "indexed": false,
          "name": "name",
          "type": "string"
        },
        {
          "indexed": false,
          "name": "price",
          "type": "uint256"
        },
        {
          "indexed": false,
          "name": "startDate",
          "type": "string"
        },
        {
          "indexed": false,
          "name": "location",
          "type": "string"
        },
        {
          "indexed": false,
          "name": "description",
          "type": "string"
        },
        {
          "indexed": false,
          "name": "owner",
          "type": "address"
        },
        {
          "indexed": false,
          "name": "purchased",
          "type": "bool"
        }
      ],
      "name": "TicketPurchased",
      "type": "event"
    },
    {
      "constant": false,
      "inputs": [
        {
          "name": "_name",
          "type": "string"
        },
        {
          "name": "_price",
          "type": "uint256"
        },
        {
          "name": "_startDate",
          "type": "string"
        },
        {
          "name": "_location",
          "type": "string"
        },
        {
          "name": "_description",
          "type": "string"
        }
      ],
      "name": "createTicket",
      "outputs": [],
      "payable": false,
      "stateMutability": "nonpayable",
      "type": "function"
    },
    {
      "constant": false,
      "inputs": [
        {
          "name": "_id",
          "type": "uint256"
        }
      ],
      "name": "purchaseTicket",
      "outputs": [],
      "payable": true,
      "stateMutability": "payable",
      "type": "function"
    }
  ],
  "bytecode": "0x608060405260006001553480156200001657600080fd5b506040805190810160405280600b81526020017f4d61726b6574706c61636500000000000000000000000000000000000000000081525060009080519060200190620000649291906200006b565b506200011a565b828054600181600116156101000203166002900490600052602060002090601f016020900481019282601f10620000ae57805160ff1916838001178555620000df565b82800160010185558215620000df579182015b82811115620000de578251825591602001919060010190620000c1565b5b509050620000ee9190620000f2565b5090565b6200011791905b8082111562000113576000816000905550600101620000f9565b5090565b90565b611682806200012a6000396000f3fe60806040526004361061006d576000357c0100000000000000000000000000000000000000000000000000000000900463ffffffff16806302aab9751461007257806306fdde031461030957806350b4471214610399578063b948348c146105dd578063cfbd900f1461060b575b600080fd5b34801561007e57600080fd5b50610307600480360360a081101561009557600080fd5b81019080803590602001906401000000008111156100b257600080fd5b8201836020820111156100c457600080fd5b803590602001918460018302840111640100000000831117156100e657600080fd5b91908080601f016020809104026020016040519081016040528093929190818152602001838380828437600081840152601f19601f820116905080830192505050505050509192919290803590602001909291908035906020019064010000000081111561015357600080fd5b82018360208201111561016557600080fd5b8035906020019184600183028401116401000000008311171561018757600080fd5b91908080601f016020809104026020016040519081016040528093929190818152602001838380828437600081840152601f19601f820116905080830192505050505050509192919290803590602001906401000000008111156101ea57600080fd5b8201836020820111156101fc57600080fd5b8035906020019184600183028401116401000000008311171561021e57600080fd5b91908080601f016020809104026020016040519081016040528093929190818152602001838380828437600081840152601f19601f8201169050808301925050505050505091929192908035906020019064010000000081111561028157600080fd5b82018360208201111561029357600080fd5b803590602001918460018302840111640100000000831117156102b557600080fd5b91908080601f016020809104026020016040519081016040528093929190818152602001838380828437600081840152601f19601f820116905080830192505050505050509192919290505050610636565b005b34801561031557600080fd5b5061031e610a31565b6040518080602001828103825283818151815260200191508051906020019080838360005b8381101561035e578082015181840152602081019050610343565b50505050905090810190601f16801561038b5780820380516001836020036101000a031916815260200191505b509250505060405180910390f35b3480156103a557600080fd5b506103d2600480360360208110156103bc57600080fd5b8101908080359060200190929190505050610acf565b60405180898152602001806020018881526020018060200180602001806020018773ffffffffffffffffffffffffffffffffffffffff1673ffffffffffffffffffffffffffffffffffffffff1681526020018615151515815260200185810385528c818151815260200191508051906020019080838360005b8381101561046657808201518184015260208101905061044b565b50505050905090810190601f1680156104935780820380516001836020036101000a031916815260200191505b5085810384528a818151815260200191508051906020019080838360005b838110156104cc5780820151818401526020810190506104b1565b50505050905090810190601f1680156104f95780820380516001836020036101000a031916815260200191505b50858103835289818151815260200191508051906020019080838360005b83811015610532578082015181840152602081019050610517565b50505050905090810190601f16801561055f5780820380516001836020036101000a031916815260200191505b50858103825288818151815260200191508051906020019080838360005b8381101561059857808201518184015260208101905061057d565b50505050905090810190601f1680156105c55780820380516001836020036101000a031916815260200191505b509c5050505050505050505050505060405180910390f35b610609600480360360208110156105f357600080fd5b8101908080359060200190929190505050610da4565b005b34801561061757600080fd5b5061062061154d565b6040518082815260200191505060405180910390f35b6000855111151561064657600080fd5b60008411151561065557600080fd5b6000835111151561066557600080fd5b6000825111151561067557600080fd5b6000815111151561068557600080fd5b6001600081548092919060010191905055506101006040519081016040528060015481526020018681526020018581526020018481526020018381526020018281526020013373ffffffffffffffffffffffffffffffffffffffff16815260200160001515815250600260006001548152602001908152602001600020600082015181600001556020820151816001019080519060200190610728929190611553565b5060408201518160020155606082015181600301908051906020019061074f929190611553565b50608082015181600401908051906020019061076c929190611553565b5060a0820151816005019080519060200190610789929190611553565b5060c08201518160060160006101000a81548173ffffffffffffffffffffffffffffffffffffffff021916908373ffffffffffffffffffffffffffffffffffffffff16021790555060e08201518160060160146101000a81548160ff0219169083151502179055509050507f1089af965d0bf4ee85101068100600ef1cf6a02944ad8aa483deaffed5dc3129600154868686868633600060405180898152602001806020018881526020018060200180602001806020018773ffffffffffffffffffffffffffffffffffffffff1673ffffffffffffffffffffffffffffffffffffffff1681526020018615151515815260200185810385528c818151815260200191508051906020019080838360005b838110156108b4578082015181840152602081019050610899565b50505050905090810190601f1680156108e15780820380516001836020036101000a031916815260200191505b5085810384528a818151815260200191508051906020019080838360005b8381101561091a5780820151818401526020810190506108ff565b50505050905090810190601f1680156109475780820380516001836020036101000a031916815260200191505b50858103835289818151815260200191508051906020019080838360005b83811015610980578082015181840152602081019050610965565b50505050905090810190601f1680156109ad5780820380516001836020036101000a031916815260200191505b50858103825288818151815260200191508051906020019080838360005b838110156109e65780820151818401526020810190506109cb565b50505050905090810190601f168015610a135780820380516001836020036101000a031916815260200191505b509c5050505050505050505050505060405180910390a15050505050565b60008054600181600116156101000203166002900480601f016020809104026020016040519081016040528092919081815260200182805460018160011615610100020316600290048015610ac75780601f10610a9c57610100808354040283529160200191610ac7565b820191906000526020600020905b815481529060010190602001808311610aaa57829003601f168201915b505050505081565b6002602052806000526040600020600091509050806000015490806001018054600181600116156101000203166002900480601f016020809104026020016040519081016040528092919081815260200182805460018160011615610100020316600290048015610b815780601f10610b5657610100808354040283529160200191610b81565b820191906000526020600020905b815481529060010190602001808311610b6457829003601f168201915b505050505090806002015490806003018054600181600116156101000203166002900480601f016020809104026020016040519081016040528092919081815260200182805460018160011615610100020316600290048015610c255780601f10610bfa57610100808354040283529160200191610c25565b820191906000526020600020905b815481529060010190602001808311610c0857829003601f168201915b505050505090806004018054600181600116156101000203166002900480601f016020809104026020016040519081016040528092919081815260200182805460018160011615610100020316600290048015610cc35780601f10610c9857610100808354040283529160200191610cc3565b820191906000526020600020905b815481529060010190602001808311610ca657829003601f168201915b505050505090806005018054600181600116156101000203166002900480601f016020809104026020016040519081016040528092919081815260200182805460018160011615610100020316600290048015610d615780601f10610d3657610100808354040283529160200191610d61565b820191906000526020600020905b815481529060010190602001808311610d4457829003601f168201915b5050505050908060060160009054906101000a900473ffffffffffffffffffffffffffffffffffffffff16908060060160149054906101000a900460ff16905088565b610dac6115d3565b60026000838152602001908152602001600020610100604051908101604052908160008201548152602001600182018054600181600116156101000203166002900480601f016020809104026020016040519081016040528092919081815260200182805460018160011615610100020316600290048015610e6f5780601f10610e4457610100808354040283529160200191610e6f565b820191906000526020600020905b815481529060010190602001808311610e5257829003601f168201915b5050505050815260200160028201548152602001600382018054600181600116156101000203166002900480601f016020809104026020016040519081016040528092919081815260200182805460018160011615610100020316600290048015610f1b5780601f10610ef057610100808354040283529160200191610f1b565b820191906000526020600020905b815481529060010190602001808311610efe57829003601f168201915b50505050508152602001600482018054600181600116156101000203166002900480601f016020809104026020016040519081016040528092919081815260200182805460018160011615610100020316600290048015610fbd5780601f10610f9257610100808354040283529160200191610fbd565b820191906000526020600020905b815481529060010190602001808311610fa057829003601f168201915b50505050508152602001600582018054600181600116156101000203166002900480601f01602080910402602001604051908101604052809291908181526020018280546001816001161561010002031660029004801561105f5780601f106110345761010080835404028352916020019161105f565b820191906000526020600020905b81548152906001019060200180831161104257829003601f168201915b505050505081526020016006820160009054906101000a900473ffffffffffffffffffffffffffffffffffffffff1673ffffffffffffffffffffffffffffffffffffffff1673ffffffffffffffffffffffffffffffffffffffff1681526020016006820160149054906101000a900460ff161515151581525050905060008160c001519050600082600001511180156110fe5750600154826000015111155b151561110957600080fd5b8160400151341015151561111c57600080fd5b8160e0015115151561112d57600080fd5b3373ffffffffffffffffffffffffffffffffffffffff168173ffffffffffffffffffffffffffffffffffffffff161415151561116857600080fd5b338260c0019073ffffffffffffffffffffffffffffffffffffffff16908173ffffffffffffffffffffffffffffffffffffffff168152505060018260e001901515908115158152505081600260008581526020019081526020016000206000820151816000015560208201518160010190805190602001906111eb929190611553565b50604082015181600201556060820151816003019080519060200190611212929190611553565b50608082015181600401908051906020019061122f929190611553565b5060a082015181600501908051906020019061124c929190611553565b5060c08201518160060160006101000a81548173ffffffffffffffffffffffffffffffffffffffff021916908373ffffffffffffffffffffffffffffffffffffffff16021790555060e08201518160060160146101000a81548160ff0219169083151502179055509050508073ffffffffffffffffffffffffffffffffffffffff166108fc349081150290604051600060405180830381858888f193505050501580156112fd573d6000803e3d6000fd5b507f1280fcdcb7d84c542291f111aad8f09b9e79b24bf4bc5b7301b1dfce485092d360015483602001518460400151856060015186608001518760a0015133600160405180898152602001806020018881526020018060200180602001806020018773ffffffffffffffffffffffffffffffffffffffff1673ffffffffffffffffffffffffffffffffffffffff1681526020018615151515815260200185810385528c818151815260200191508051906020019080838360005b838110156113d25780820151818401526020810190506113b7565b50505050905090810190601f1680156113ff5780820380516001836020036101000a031916815260200191505b5085810384528a818151815260200191508051906020019080838360005b8381101561143857808201518184015260208101905061141d565b50505050905090810190601f1680156114655780820380516001836020036101000a031916815260200191505b50858103835289818151815260200191508051906020019080838360005b8381101561149e578082015181840152602081019050611483565b50505050905090810190601f1680156114cb5780820380516001836020036101000a031916815260200191505b50858103825288818151815260200191508051906020019080838360005b838110156115045780820151818401526020810190506114e9565b50505050905090810190601f1680156115315780820380516001836020036101000a031916815260200191505b509c5050505050505050505050505060405180910390a1505050565b60015481565b828054600181600116156101000203166002900490600052602060002090601f016020900481019282601f1061159457805160ff19168380011785556115c2565b828001600101855582156115c2579182015b828111156115c15782518255916020019190600101906115a6565b5b5090506115cf9190611631565b5090565b61010060405190810160405280600081526020016060815260200160008152602001606081526020016060815260200160608152602001600073ffffffffffffffffffffffffffffffffffffffff1681526020016000151581525090565b61165391905b8082111561164f576000816000905550600101611637565b5090565b9056fea165627a7a72305820ba3d8ee355e6a706640ccafb45ff668e6b22b68410077e360de389ae3db781270029",
  "source": "  \r\n// SPDX-License-Identifier: MIT\r\npragma solidity ^0.5.0;\r\n\r\n\r\ncontract Marketplace {\r\n    string public name;\r\n    uint256 public ticketCount = 0;\r\n    mapping(uint256 => Ticket) public tickets;\r\n\r\n\r\n    struct Ticket {\r\n        uint256 id;\r\n        // string imgHash;\r\n        string name;\r\n        uint256 price;\r\n        string startDate;\r\n        string location;\r\n        string description;\r\n        address payable owner;\r\n        bool purchased;\r\n    }\r\n\r\n      event TicketCreated(\r\n        uint256 id,\r\n        // string imgHash,\r\n        string name,\r\n        uint256 price,\r\n        string startDate,\r\n        string location,\r\n        string description,\r\n        address payable owner,\r\n        bool purchased\r\n    );\r\n\r\n    event TicketPurchased(\r\n        uint256 id,\r\n        // string imgHash,\r\n        string name,\r\n        uint256 price,\r\n        string startDate,\r\n        string location,\r\n        string description,\r\n        address payable owner,\r\n        bool purchased\r\n    );\r\n    constructor() public {\r\n        name = \"Marketplace\";\r\n    }\r\n\r\n    function createTicket(/*string memory _imgHash,*/ string memory _name, uint256 _price, string memory _startDate, string memory _location, string memory _description) public {\r\n        // //Validate uploader address exists\r\n        // require(msg.sender!=address(0)); \r\n        // //Validate hash exists\r\n        // require(bytes(_imgHash).length > 0);\r\n        //Require a valid name\r\n        require(bytes(_name).length > 0);\r\n        // Reuire a valid price\r\n        require(_price > 0);\r\n        // Require valid date\r\n        require(bytes(_startDate).length > 0);\r\n        // Require a valid location\r\n        require(bytes(_location).length > 0);\r\n        // Require a valid description\r\n        require(bytes(_description).length > 0);\r\n        // Make sure parameters are correct\r\n        // Increment Ticket count\r\n        ticketCount++;\r\n        //Create the ticket\r\n        tickets[ticketCount] = Ticket(\r\n            ticketCount,\r\n            // _imgHash,\r\n            _name,\r\n            _price,\r\n            _startDate,\r\n            _location,\r\n            _description,\r\n            msg.sender,\r\n            false\r\n        );\r\n        //Trigger an event\r\n        emit TicketCreated(ticketCount, /*_imgHash,*/ _name, _price, _startDate, _location, _description, msg.sender, false);\r\n    }\r\n\r\n\r\n    function purchaseTicket(uint256 _id) public payable {\r\n        // Fetch the product\r\n        Ticket memory _ticket = tickets[_id];\r\n        // Fetch the owner\r\n        address payable _seller = _ticket.owner;\r\n        // Make sure the ticket has a valid id\r\n        require(_ticket.id > 0 && _ticket.id <= ticketCount);\r\n        // Require that there is enough Ether in the transaction\r\n        require(msg.value >= _ticket.price);\r\n        // Require that the ticket has not been purchased already\r\n        require(!_ticket.purchased);\r\n        // Require that the buyer is not the seller\r\n        require(_seller != msg.sender);\r\n        // Transfer ownership to the buyer\r\n        _ticket.owner = msg.sender;\r\n        // Mark as purchased\r\n        _ticket.purchased = true;\r\n        // Update the product\r\n        tickets[_id] = _ticket;\r\n        // Pay the seller by sending them Ether\r\n        address(_seller).transfer(msg.value);\r\n        //Trigger an event\r\n        emit TicketPurchased(\r\n            ticketCount,\r\n            // _ticket.imgHash,\r\n            _ticket.name,\r\n            _ticket.price,\r\n            _ticket.startDate,\r\n            _ticket.location,\r\n            _ticket.description,\r\n            msg.sender,\r\n            true\r\n        );\r\n    }\r\n}",
  "sourcePath": "C:/Users/gripn/Desktop/Programing/AlignSD.gitlab.io/Ticket_Bits/client/src/contracts/Marketplace.sol",
  "compiler": {
    "name": "solc",
    "version": "0.5.0+commit.1d4f565a.Emscripten.clang"
  },
  "schemaVersion": "3.3.4",
  "updatedAt": "2021-03-23T05:20:55.763Z",
  "networkType": "ethereum",
  "devdoc": {
    "methods": {}
  },
  "userdoc": {
    "methods": {}
  }
}