{
  "contractName": "Marketplace",
  "abi": [
    {
      "inputs": [],
      "payable": false,
      "stateMutability": "nonpayable",
      "type": "constructor"
    },
    {
      "anonymous": false,
      "inputs": [
        {
          "indexed": false,
          "internalType": "uint256",
          "name": "id",
          "type": "uint256"
        },
        {
          "indexed": false,
          "internalType": "string",
          "name": "name",
          "type": "string"
        },
        {
          "indexed": false,
          "internalType": "uint256",
          "name": "price",
          "type": "uint256"
        },
        {
          "indexed": false,
          "internalType": "string",
          "name": "startDate",
          "type": "string"
        },
        {
          "indexed": false,
          "internalType": "string",
          "name": "location",
          "type": "string"
        },
        {
          "indexed": false,
          "internalType": "string",
          "name": "description",
          "type": "string"
        },
        {
          "indexed": false,
          "internalType": "uint256",
          "name": "quanity",
          "type": "uint256"
        },
        {
          "indexed": false,
          "internalType": "uint256",
          "name": "availableTickets",
          "type": "uint256"
        },
        {
          "indexed": false,
          "internalType": "address payable",
          "name": "owner",
          "type": "address"
        },
        {
          "indexed": false,
          "internalType": "bool",
          "name": "purchased",
          "type": "bool"
        }
      ],
      "name": "AddTicket",
      "type": "event"
    },
    {
      "anonymous": false,
      "inputs": [
        {
          "indexed": false,
          "internalType": "uint256",
          "name": "id",
          "type": "uint256"
        },
        {
          "indexed": false,
          "internalType": "string",
          "name": "name",
          "type": "string"
        },
        {
          "indexed": false,
          "internalType": "uint256",
          "name": "price",
          "type": "uint256"
        },
        {
          "indexed": false,
          "internalType": "string",
          "name": "startDate",
          "type": "string"
        },
        {
          "indexed": false,
          "internalType": "string",
          "name": "location",
          "type": "string"
        },
        {
          "indexed": false,
          "internalType": "string",
          "name": "description",
          "type": "string"
        },
        {
          "indexed": false,
          "internalType": "uint256",
          "name": "quanity",
          "type": "uint256"
        },
        {
          "indexed": false,
          "internalType": "address payable",
          "name": "owner",
          "type": "address"
        }
      ],
      "name": "EventCreated",
      "type": "event"
    },
    {
      "anonymous": false,
      "inputs": [
        {
          "indexed": false,
          "internalType": "uint256",
          "name": "id",
          "type": "uint256"
        },
        {
          "indexed": false,
          "internalType": "uint256",
          "name": "ticketId",
          "type": "uint256"
        },
        {
          "indexed": false,
          "internalType": "string",
          "name": "name",
          "type": "string"
        },
        {
          "indexed": false,
          "internalType": "uint256",
          "name": "price",
          "type": "uint256"
        },
        {
          "indexed": false,
          "internalType": "uint256",
          "name": "quanity",
          "type": "uint256"
        },
        {
          "indexed": false,
          "internalType": "address payable",
          "name": "owner",
          "type": "address"
        },
        {
          "indexed": false,
          "internalType": "bool",
          "name": "soldout",
          "type": "bool"
        }
      ],
      "name": "EventTicketPurchased",
      "type": "event"
    },
    {
      "anonymous": false,
      "inputs": [
        {
          "indexed": false,
          "internalType": "uint256",
          "name": "id",
          "type": "uint256"
        },
        {
          "indexed": false,
          "internalType": "string",
          "name": "name",
          "type": "string"
        },
        {
          "indexed": false,
          "internalType": "uint256",
          "name": "price",
          "type": "uint256"
        },
        {
          "indexed": false,
          "internalType": "uint256",
          "name": "quanity",
          "type": "uint256"
        },
        {
          "indexed": false,
          "internalType": "address payable",
          "name": "owner",
          "type": "address"
        },
        {
          "indexed": false,
          "internalType": "bool",
          "name": "purchased",
          "type": "bool"
        }
      ],
      "name": "TicketPurchased",
      "type": "event"
    },
    {
      "constant": true,
      "inputs": [],
      "name": "availableEventTickets",
      "outputs": [
        {
          "internalType": "uint256",
          "name": "",
          "type": "uint256"
        }
      ],
      "payable": false,
      "stateMutability": "view",
      "type": "function"
    },
    {
      "constant": true,
      "inputs": [],
      "name": "availableTickets",
      "outputs": [
        {
          "internalType": "uint256",
          "name": "",
          "type": "uint256"
        }
      ],
      "payable": false,
      "stateMutability": "view",
      "type": "function"
    },
    {
      "constant": true,
      "inputs": [],
      "name": "eventCount",
      "outputs": [
        {
          "internalType": "uint256",
          "name": "",
          "type": "uint256"
        }
      ],
      "payable": false,
      "stateMutability": "view",
      "type": "function"
    },
    {
      "constant": true,
      "inputs": [
        {
          "internalType": "uint256",
          "name": "",
          "type": "uint256"
        }
      ],
      "name": "events",
      "outputs": [
        {
          "internalType": "uint256",
          "name": "id",
          "type": "uint256"
        },
        {
          "internalType": "string",
          "name": "name",
          "type": "string"
        },
        {
          "internalType": "uint256",
          "name": "price",
          "type": "uint256"
        },
        {
          "internalType": "string",
          "name": "startDate",
          "type": "string"
        },
        {
          "internalType": "string",
          "name": "location",
          "type": "string"
        },
        {
          "internalType": "string",
          "name": "description",
          "type": "string"
        },
        {
          "internalType": "uint256",
          "name": "quanity",
          "type": "uint256"
        },
        {
          "internalType": "address payable",
          "name": "owner",
          "type": "address"
        },
        {
          "internalType": "bool",
          "name": "soldout",
          "type": "bool"
        }
      ],
      "payable": false,
      "stateMutability": "view",
      "type": "function"
    },
    {
      "constant": true,
      "inputs": [],
      "name": "name",
      "outputs": [
        {
          "internalType": "string",
          "name": "",
          "type": "string"
        }
      ],
      "payable": false,
      "stateMutability": "view",
      "type": "function"
    },
    {
      "constant": true,
      "inputs": [],
      "name": "ticketCount",
      "outputs": [
        {
          "internalType": "uint256",
          "name": "",
          "type": "uint256"
        }
      ],
      "payable": false,
      "stateMutability": "view",
      "type": "function"
    },
    {
      "constant": true,
      "inputs": [
        {
          "internalType": "uint256",
          "name": "",
          "type": "uint256"
        }
      ],
      "name": "tickets",
      "outputs": [
        {
          "internalType": "uint256",
          "name": "id",
          "type": "uint256"
        },
        {
          "internalType": "string",
          "name": "name",
          "type": "string"
        },
        {
          "internalType": "uint256",
          "name": "price",
          "type": "uint256"
        },
        {
          "internalType": "string",
          "name": "startDate",
          "type": "string"
        },
        {
          "internalType": "string",
          "name": "location",
          "type": "string"
        },
        {
          "internalType": "string",
          "name": "description",
          "type": "string"
        },
        {
          "internalType": "uint256",
          "name": "quanity",
          "type": "uint256"
        },
        {
          "internalType": "uint256",
          "name": "availableTickets",
          "type": "uint256"
        },
        {
          "internalType": "address payable",
          "name": "owner",
          "type": "address"
        },
        {
          "internalType": "bool",
          "name": "purchased",
          "type": "bool"
        }
      ],
      "payable": false,
      "stateMutability": "view",
      "type": "function"
    },
    {
      "constant": false,
      "inputs": [
        {
          "internalType": "string",
          "name": "_name",
          "type": "string"
        },
        {
          "internalType": "uint256",
          "name": "_price",
          "type": "uint256"
        },
        {
          "internalType": "string",
          "name": "_startDate",
          "type": "string"
        },
        {
          "internalType": "string",
          "name": "_location",
          "type": "string"
        },
        {
          "internalType": "string",
          "name": "_description",
          "type": "string"
        },
        {
          "internalType": "uint256",
          "name": "_quanity",
          "type": "uint256"
        }
      ],
      "name": "eventCreated",
      "outputs": [],
      "payable": false,
      "stateMutability": "nonpayable",
      "type": "function"
    },
    {
      "constant": false,
      "inputs": [
        {
          "internalType": "uint256",
          "name": "_id",
          "type": "uint256"
        },
        {
          "internalType": "uint256",
          "name": "_quantity",
          "type": "uint256"
        }
      ],
      "name": "purchaseEventTicket",
      "outputs": [],
      "payable": true,
      "stateMutability": "payable",
      "type": "function"
    },
    {
      "constant": false,
      "inputs": [
        {
          "internalType": "string",
          "name": "_name",
          "type": "string"
        },
        {
          "internalType": "uint256",
          "name": "_price",
          "type": "uint256"
        },
        {
          "internalType": "string",
          "name": "_startDate",
          "type": "string"
        },
        {
          "internalType": "string",
          "name": "_location",
          "type": "string"
        },
        {
          "internalType": "string",
          "name": "_description",
          "type": "string"
        },
        {
          "internalType": "uint256",
          "name": "_quanity",
          "type": "uint256"
        },
        {
          "internalType": "uint256",
          "name": "_availableTickets",
          "type": "uint256"
        }
      ],
      "name": "addTicket",
      "outputs": [],
      "payable": false,
      "stateMutability": "nonpayable",
      "type": "function"
    },
    {
      "constant": false,
      "inputs": [
        {
          "internalType": "uint256",
          "name": "_id",
          "type": "uint256"
        },
        {
          "internalType": "uint256",
          "name": "_quantity",
          "type": "uint256"
        }
      ],
      "name": "purchaseTicket",
      "outputs": [],
      "payable": true,
      "stateMutability": "payable",
      "type": "function"
    }
  ],
  "bytecode": "0x6080604052600060035560006004553480156200001b57600080fd5b506040518060400160405280600b81526020017f4d61726b6574706c616365000000000000000000000000000000000000000000815250600090805190602001906200006992919062000070565b506200011f565b828054600181600116156101000203166002900490600052602060002090601f016020900481019282601f10620000b357805160ff1916838001178555620000e4565b82800160010185558215620000e4579182015b82811115620000e3578251825591602001919060010190620000c6565b5b509050620000f39190620000f7565b5090565b6200011c91905b8082111562000118576000816000905550600101620000fe565b5090565b90565b612b85806200012f6000396000f3fe60806040526004361061009c5760003560e01c80637b152309116100645780637b1523091461062457806399b4522d1461065c578063bdbbb0cb14610907578063cfbd900f1461093f578063dd04f0611461096a578063f5c7ab4114610c0b5761009c565b806306fdde03146100a15780630b791430146101315780633cfa7e011461037c57806350b44712146103a757806371be2e4a146105f9575b600080fd5b3480156100ad57600080fd5b506100b6610c36565b6040518080602001828103825283818151815260200191508051906020019080838360005b838110156100f65780820151818401526020810190506100db565b50505050905090810190601f1680156101235780820380516001836020036101000a031916815260200191505b509250505060405180910390f35b34801561013d57600080fd5b5061016a6004803603602081101561015457600080fd5b8101908080359060200190929190505050610cd4565b604051808a8152602001806020018981526020018060200180602001806020018881526020018773ffffffffffffffffffffffffffffffffffffffff1673ffffffffffffffffffffffffffffffffffffffff1681526020018615151515815260200185810385528d818151815260200191508051906020019080838360005b838110156102045780820151818401526020810190506101e9565b50505050905090810190601f1680156102315780820380516001836020036101000a031916815260200191505b5085810384528b818151815260200191508051906020019080838360005b8381101561026a57808201518184015260208101905061024f565b50505050905090810190601f1680156102975780820380516001836020036101000a031916815260200191505b5085810383528a818151815260200191508051906020019080838360005b838110156102d05780820151818401526020810190506102b5565b50505050905090810190601f1680156102fd5780820380516001836020036101000a031916815260200191505b50858103825289818151815260200191508051906020019080838360005b8381101561033657808201518184015260208101905061031b565b50505050905090810190601f1680156103635780820380516001836020036101000a031916815260200191505b509d505050505050505050505050505060405180910390f35b34801561038857600080fd5b50610391610faf565b6040518082815260200191505060405180910390f35b3480156103b357600080fd5b506103e0600480360360208110156103ca57600080fd5b8101908080359060200190929190505050610fb5565b604051808b8152602001806020018a81526020018060200180602001806020018981526020018881526020018773ffffffffffffffffffffffffffffffffffffffff1673ffffffffffffffffffffffffffffffffffffffff1681526020018615151515815260200185810385528e818151815260200191508051906020019080838360005b83811015610480578082015181840152602081019050610465565b50505050905090810190601f1680156104ad5780820380516001836020036101000a031916815260200191505b5085810384528c818151815260200191508051906020019080838360005b838110156104e65780820151818401526020810190506104cb565b50505050905090810190601f1680156105135780820380516001836020036101000a031916815260200191505b5085810383528b818151815260200191508051906020019080838360005b8381101561054c578082015181840152602081019050610531565b50505050905090810190601f1680156105795780820380516001836020036101000a031916815260200191505b5085810382528a818151815260200191508051906020019080838360005b838110156105b2578082015181840152602081019050610597565b50505050905090810190601f1680156105df5780820380516001836020036101000a031916815260200191505b509e50505050505050505050505050505060405180910390f35b34801561060557600080fd5b5061060e611296565b6040518082815260200191505060405180910390f35b61065a6004803603604081101561063a57600080fd5b81019080803590602001909291908035906020019092919050505061129c565b005b34801561066857600080fd5b50610905600480360360e081101561067f57600080fd5b810190808035906020019064010000000081111561069c57600080fd5b8201836020820111156106ae57600080fd5b803590602001918460018302840111640100000000831117156106d057600080fd5b91908080601f016020809104026020016040519081016040528093929190818152602001838380828437600081840152601f19601f820116905080830192505050505050509192919290803590602001909291908035906020019064010000000081111561073d57600080fd5b82018360208201111561074f57600080fd5b8035906020019184600183028401116401000000008311171561077157600080fd5b91908080601f016020809104026020016040519081016040528093929190818152602001838380828437600081840152601f19601f820116905080830192505050505050509192919290803590602001906401000000008111156107d457600080fd5b8201836020820111156107e657600080fd5b8035906020019184600183028401116401000000008311171561080857600080fd5b91908080601f016020809104026020016040519081016040528093929190818152602001838380828437600081840152601f19601f8201169050808301925050505050505091929192908035906020019064010000000081111561086b57600080fd5b82018360208201111561087d57600080fd5b8035906020019184600183028401116401000000008311171561089f57600080fd5b91908080601f016020809104026020016040519081016040528093929190818152602001838380828437600081840152601f19601f82011690508083019250505050505050919291929080359060200190929190803590602001909291905050506119fa565b005b61093d6004803603604081101561091d57600080fd5b810190808035906020019092919080359060200190929190505050611e30565b005b34801561094b57600080fd5b506109546125b0565b6040518082815260200191505060405180910390f35b34801561097657600080fd5b50610c09600480360360c081101561098d57600080fd5b81019080803590602001906401000000008111156109aa57600080fd5b8201836020820111156109bc57600080fd5b803590602001918460018302840111640100000000831117156109de57600080fd5b91908080601f016020809104026020016040519081016040528093929190818152602001838380828437600081840152601f19601f8201169050808301925050505050505091929192908035906020019092919080359060200190640100000000811115610a4b57600080fd5b820183602082011115610a5d57600080fd5b80359060200191846001830284011164010000000083111715610a7f57600080fd5b91908080601f016020809104026020016040519081016040528093929190818152602001838380828437600081840152601f19601f82011690508083019250505050505050919291929080359060200190640100000000811115610ae257600080fd5b820183602082011115610af457600080fd5b80359060200191846001830284011164010000000083111715610b1657600080fd5b91908080601f016020809104026020016040519081016040528093929190818152602001838380828437600081840152601f19601f82011690508083019250505050505050919291929080359060200190640100000000811115610b7957600080fd5b820183602082011115610b8b57600080fd5b80359060200191846001830284011164010000000083111715610bad57600080fd5b91908080601f016020809104026020016040519081016040528093929190818152602001838380828437600081840152601f19601f820116905080830192505050505050509192919290803590602001909291905050506125b6565b005b348015610c1757600080fd5b50610c206129b2565b6040518082815260200191505060405180910390f35b60008054600181600116156101000203166002900480601f016020809104026020016040519081016040528092919081815260200182805460018160011615610100020316600290048015610ccc5780601f10610ca157610100808354040283529160200191610ccc565b820191906000526020600020905b815481529060010190602001808311610caf57829003601f168201915b505050505081565b6005602052806000526040600020600091509050806000015490806001018054600181600116156101000203166002900480601f016020809104026020016040519081016040528092919081815260200182805460018160011615610100020316600290048015610d865780601f10610d5b57610100808354040283529160200191610d86565b820191906000526020600020905b815481529060010190602001808311610d6957829003601f168201915b505050505090806002015490806003018054600181600116156101000203166002900480601f016020809104026020016040519081016040528092919081815260200182805460018160011615610100020316600290048015610e2a5780601f10610dff57610100808354040283529160200191610e2a565b820191906000526020600020905b815481529060010190602001808311610e0d57829003601f168201915b505050505090806004018054600181600116156101000203166002900480601f016020809104026020016040519081016040528092919081815260200182805460018160011615610100020316600290048015610ec85780601f10610e9d57610100808354040283529160200191610ec8565b820191906000526020600020905b815481529060010190602001808311610eab57829003601f168201915b505050505090806005018054600181600116156101000203166002900480601f016020809104026020016040519081016040528092919081815260200182805460018160011615610100020316600290048015610f665780601f10610f3b57610100808354040283529160200191610f66565b820191906000526020600020905b815481529060010190602001808311610f4957829003601f168201915b5050505050908060060154908060070160009054906101000a900473ffffffffffffffffffffffffffffffffffffffff16908060070160149054906101000a900460ff16905089565b60015481565b6006602052806000526040600020600091509050806000015490806001018054600181600116156101000203166002900480601f0160208091040260200160405190810160405280929190818152602001828054600181600116156101000203166002900480156110675780601f1061103c57610100808354040283529160200191611067565b820191906000526020600020905b81548152906001019060200180831161104a57829003601f168201915b505050505090806002015490806003018054600181600116156101000203166002900480601f01602080910402602001604051908101604052809291908181526020018280546001816001161561010002031660029004801561110b5780601f106110e05761010080835404028352916020019161110b565b820191906000526020600020905b8154815290600101906020018083116110ee57829003601f168201915b505050505090806004018054600181600116156101000203166002900480601f0160208091040260200160405190810160405280929190818152602001828054600181600116156101000203166002900480156111a95780601f1061117e576101008083540402835291602001916111a9565b820191906000526020600020905b81548152906001019060200180831161118c57829003601f168201915b505050505090806005018054600181600116156101000203166002900480601f0160208091040260200160405190810160405280929190818152602001828054600181600116156101000203166002900480156112475780601f1061121c57610100808354040283529160200191611247565b820191906000526020600020905b81548152906001019060200180831161122a57829003601f168201915b5050505050908060060154908060070154908060080160009054906101000a900473ffffffffffffffffffffffffffffffffffffffff16908060080160149054906101000a900460ff1690508a565b60045481565b6112a46129b8565b600560008481526020019081526020016000206040518061012001604052908160008201548152602001600182018054600181600116156101000203166002900480601f0160208091040260200160405190810160405280929190818152602001828054600181600116156101000203166002900480156113665780601f1061133b57610100808354040283529160200191611366565b820191906000526020600020905b81548152906001019060200180831161134957829003601f168201915b5050505050815260200160028201548152602001600382018054600181600116156101000203166002900480601f0160208091040260200160405190810160405280929190818152602001828054600181600116156101000203166002900480156114125780601f106113e757610100808354040283529160200191611412565b820191906000526020600020905b8154815290600101906020018083116113f557829003601f168201915b50505050508152602001600482018054600181600116156101000203166002900480601f0160208091040260200160405190810160405280929190818152602001828054600181600116156101000203166002900480156114b45780601f10611489576101008083540402835291602001916114b4565b820191906000526020600020905b81548152906001019060200180831161149757829003601f168201915b50505050508152602001600582018054600181600116156101000203166002900480601f0160208091040260200160405190810160405280929190818152602001828054600181600116156101000203166002900480156115565780601f1061152b57610100808354040283529160200191611556565b820191906000526020600020905b81548152906001019060200180831161153957829003601f168201915b50505050508152602001600682015481526020016007820160009054906101000a900473ffffffffffffffffffffffffffffffffffffffff1673ffffffffffffffffffffffffffffffffffffffff1673ffffffffffffffffffffffffffffffffffffffff1681526020016007820160149054906101000a900460ff161515151581525050905060008160e00151905081604001513410156115f657600080fd5b82826040015102341015611672576040517f08c379a00000000000000000000000000000000000000000000000000000000081526004018080602001828103825260158152602001807f6e6f7420656e6f756768206d6f6e65792073656e74000000000000000000000081525060200191505060405180910390fd5b3373ffffffffffffffffffffffffffffffffffffffff168173ffffffffffffffffffffffffffffffffffffffff1614156116ab57600080fd5b826002541015611706576040517f08c379a0000000000000000000000000000000000000000000000000000000008152600401808060200182810382526024815260200180612b2d6024913960400191505060405180910390fd5b600080600090505b848160ff161015611737578180600101925050848060019003955050808060010191505061170e565b50338360e0019073ffffffffffffffffffffffffffffffffffffffff16908173ffffffffffffffffffffffffffffffffffffffff1681525050600084141561178c576001836101000190151590811515815250505b82600560008781526020019081526020016000206000820151816000015560208201518160010190805190602001906117c6929190612a1c565b506040820151816002015560608201518160030190805190602001906117ed929190612a1c565b50608082015181600401908051906020019061180a929190612a1c565b5060a0820151816005019080519060200190611827929190612a1c565b5060c0820151816006015560e08201518160070160006101000a81548173ffffffffffffffffffffffffffffffffffffffff021916908373ffffffffffffffffffffffffffffffffffffffff1602179055506101008201518160070160146101000a81548160ff0219169083151502179055509050508173ffffffffffffffffffffffffffffffffffffffff166108fc349081150290604051600060405180830381858888f193505050501580156118e3573d6000803e3d6000fd5b507f1dd82c9636dd1b52c77ff65cffc6025a45391d86cc0082519b023c58122ae1c560045482856020015186604001518760c001513389610100015160405180888152602001878152602001806020018681526020018581526020018473ffffffffffffffffffffffffffffffffffffffff1673ffffffffffffffffffffffffffffffffffffffff16815260200183151515158152602001828103825287818151815260200191508051906020019080838360005b838110156119b3578082015181840152602081019050611998565b50505050905090810190601f1680156119e05780820380516001836020036101000a031916815260200191505b509850505050505050505060405180910390a15050505050565b6000875111611a0857600080fd5b60008611611a1557600080fd5b6000855111611a2357600080fd5b6000845111611a3157600080fd5b6000835111611a3f57600080fd5b60008211611a4c57600080fd5b600154915060036000815480929190600101919050555060405180610140016040528060035481526020018881526020018781526020018681526020018581526020018481526020018381526020018281526020013373ffffffffffffffffffffffffffffffffffffffff16815260200160001515815250600660006003548152602001908152602001600020600082015181600001556020820151816001019080519060200190611aff929190612a1c565b50604082015181600201556060820151816003019080519060200190611b26929190612a1c565b506080820151816004019080519060200190611b43929190612a1c565b5060a0820151816005019080519060200190611b60929190612a1c565b5060c0820151816006015560e082015181600701556101008201518160080160006101000a81548173ffffffffffffffffffffffffffffffffffffffff021916908373ffffffffffffffffffffffffffffffffffffffff1602179055506101208201518160080160146101000a81548160ff0219169083151502179055509050507f504b19e38e1fbc109ce41d1003138aac47d3e3a34e101f4aa658d86692baf29c60035488888888888888336000604051808b8152602001806020018a81526020018060200180602001806020018981526020018881526020018773ffffffffffffffffffffffffffffffffffffffff1673ffffffffffffffffffffffffffffffffffffffff1681526020018615151515815260200185810385528e818151815260200191508051906020019080838360005b83811015611caf578082015181840152602081019050611c94565b50505050905090810190601f168015611cdc5780820380516001836020036101000a031916815260200191505b5085810384528c818151815260200191508051906020019080838360005b83811015611d15578082015181840152602081019050611cfa565b50505050905090810190601f168015611d425780820380516001836020036101000a031916815260200191505b5085810383528b818151815260200191508051906020019080838360005b83811015611d7b578082015181840152602081019050611d60565b50505050905090810190601f168015611da85780820380516001836020036101000a031916815260200191505b5085810382528a818151815260200191508051906020019080838360005b83811015611de1578082015181840152602081019050611dc6565b50505050905090810190601f168015611e0e5780820380516001836020036101000a031916815260200191505b509e50505050505050505050505050505060405180910390a150505050505050565b611e38612a9c565b600660008481526020019081526020016000206040518061014001604052908160008201548152602001600182018054600181600116156101000203166002900480601f016020809104026020016040519081016040528092919081815260200182805460018160011615610100020316600290048015611efa5780601f10611ecf57610100808354040283529160200191611efa565b820191906000526020600020905b815481529060010190602001808311611edd57829003601f168201915b5050505050815260200160028201548152602001600382018054600181600116156101000203166002900480601f016020809104026020016040519081016040528092919081815260200182805460018160011615610100020316600290048015611fa65780601f10611f7b57610100808354040283529160200191611fa6565b820191906000526020600020905b815481529060010190602001808311611f8957829003601f168201915b50505050508152602001600482018054600181600116156101000203166002900480601f0160208091040260200160405190810160405280929190818152602001828054600181600116156101000203166002900480156120485780601f1061201d57610100808354040283529160200191612048565b820191906000526020600020905b81548152906001019060200180831161202b57829003601f168201915b50505050508152602001600582018054600181600116156101000203166002900480601f0160208091040260200160405190810160405280929190818152602001828054600181600116156101000203166002900480156120ea5780601f106120bf576101008083540402835291602001916120ea565b820191906000526020600020905b8154815290600101906020018083116120cd57829003601f168201915b5050505050815260200160068201548152602001600782015481526020016008820160009054906101000a900473ffffffffffffffffffffffffffffffffffffffff1673ffffffffffffffffffffffffffffffffffffffff1673ffffffffffffffffffffffffffffffffffffffff1681526020016008820160149054906101000a900460ff1615151515815250509050600081610100015190506000826000015111801561219e5750600354826000015111155b6121a757600080fd5b82826040015102341015612223576040517f08c379a00000000000000000000000000000000000000000000000000000000081526004018080602001828103825260158152602001807f6e6f7420656e6f756768206d6f6e65792073656e74000000000000000000000081525060200191505060405180910390fd5b8161012001511561223357600080fd5b3373ffffffffffffffffffffffffffffffffffffffff168173ffffffffffffffffffffffffffffffffffffffff16141561226c57600080fd5b8260015410156122c7576040517f08c379a0000000000000000000000000000000000000000000000000000000008152600401808060200182810382526024815260200180612b2d6024913960400191505060405180910390fd5b60008090505b838160ff1610156122f8576001600081548092919060019003919050555080806001019150506122cd565b503382610100019073ffffffffffffffffffffffffffffffffffffffff16908173ffffffffffffffffffffffffffffffffffffffff1681525050600182610120019015159081151581525050816006600086815260200190815260200160002060008201518160000155602082015181600101908051906020019061237e929190612a1c565b506040820151816002015560608201518160030190805190602001906123a5929190612a1c565b5060808201518160040190805190602001906123c2929190612a1c565b5060a08201518160050190805190602001906123df929190612a1c565b5060c0820151816006015560e082015181600701556101008201518160080160006101000a81548173ffffffffffffffffffffffffffffffffffffffff021916908373ffffffffffffffffffffffffffffffffffffffff1602179055506101208201518160080160146101000a81548160ff0219169083151502179055509050508073ffffffffffffffffffffffffffffffffffffffff166108fc349081150290604051600060405180830381858888f193505050501580156124a6573d6000803e3d6000fd5b507f9b4b5ccefdb7bd08686b65bbae7b698bb93a97915079a5d74d6b3ecd4336146f600354836020015184604001518560c0015133600160405180878152602001806020018681526020018581526020018473ffffffffffffffffffffffffffffffffffffffff1673ffffffffffffffffffffffffffffffffffffffff16815260200183151515158152602001828103825287818151815260200191508051906020019080838360005b8381101561256b578082015181840152602081019050612550565b50505050905090810190601f1680156125985780820380516001836020036101000a031916815260200191505b5097505050505050505060405180910390a150505050565b60035481565b60008651116125c457600080fd5b600085116125d157600080fd5b60008451116125df57600080fd5b60008351116125ed57600080fd5b600081116125fa57600080fd5b60046000815480929190600101919050555060405180610120016040528060045481526020018781526020018681526020018581526020018481526020018381526020018281526020013373ffffffffffffffffffffffffffffffffffffffff168152602001600015158152506005600060045481526020019081526020016000206000820151816000015560208201518160010190805190602001906126a2929190612a1c565b506040820151816002015560608201518160030190805190602001906126c9929190612a1c565b5060808201518160040190805190602001906126e6929190612a1c565b5060a0820151816005019080519060200190612703929190612a1c565b5060c0820151816006015560e08201518160070160006101000a81548173ffffffffffffffffffffffffffffffffffffffff021916908373ffffffffffffffffffffffffffffffffffffffff1602179055506101008201518160070160146101000a81548160ff0219169083151502179055509050507f1f86c01a5b54c9704e79a4c5c74e7eafddc32d4b138a6b1ffc1b54cae0e20de56004548787878787873360405180898152602001806020018881526020018060200180602001806020018781526020018673ffffffffffffffffffffffffffffffffffffffff1673ffffffffffffffffffffffffffffffffffffffff16815260200185810385528c818151815260200191508051906020019080838360005b83811015612834578082015181840152602081019050612819565b50505050905090810190601f1680156128615780820380516001836020036101000a031916815260200191505b5085810384528a818151815260200191508051906020019080838360005b8381101561289a57808201518184015260208101905061287f565b50505050905090810190601f1680156128c75780820380516001836020036101000a031916815260200191505b50858103835289818151815260200191508051906020019080838360005b838110156129005780820151818401526020810190506128e5565b50505050905090810190601f16801561292d5780820380516001836020036101000a031916815260200191505b50858103825288818151815260200191508051906020019080838360005b8381101561296657808201518184015260208101905061294b565b50505050905090810190601f1680156129935780820380516001836020036101000a031916815260200191505b509c5050505050505050505050505060405180910390a1505050505050565b60025481565b60405180610120016040528060008152602001606081526020016000815260200160608152602001606081526020016060815260200160008152602001600073ffffffffffffffffffffffffffffffffffffffff1681526020016000151581525090565b828054600181600116156101000203166002900490600052602060002090601f016020900481019282601f10612a5d57805160ff1916838001178555612a8b565b82800160010185558215612a8b579182015b82811115612a8a578251825591602001919060010190612a6f565b5b509050612a989190612b07565b5090565b6040518061014001604052806000815260200160608152602001600081526020016060815260200160608152602001606081526020016000815260200160008152602001600073ffffffffffffffffffffffffffffffffffffffff1681526020016000151581525090565b612b2991905b80821115612b25576000816000905550600101612b0d565b5090565b9056fe6e6f7420656e6f756768207469636b6574207175616e7469747920617661696c61626c65a265627a7a7231582070d7ad44b718c47b44b9a95a22295a58097c6c18eb81934c8aef636b3c9bde6164736f6c63430005100032",
  "source": "pragma solidity ^0.5.0;\n\n\ncontract Marketplace {\n    string public name;\n    uint256 public availableTickets;\n    uint256 public availableEventTickets;\n    uint public ticketCount = 0;\n    uint public eventCount = 0;\n    mapping (uint => Event) public events;\n    mapping(uint => Ticket) public tickets;\n\n    struct Event {\n        uint id;\n        string name;\n        uint price;\n        string startDate;\n        string location;\n        string description;\n        uint quanity;\n        address payable owner;\n        bool soldout;\n    }\n\n    struct Ticket {\n        uint id;\n        string name;\n        uint price;\n        string startDate;\n        string location;\n        string description;\n        uint quanity;\n        uint availableTickets;\n        address payable owner;\n        bool purchased;\n    }\n\n    event AddTicket (\n        uint id,\n        string name,\n        uint price,\n        string startDate,\n        string location,\n        string description,\n        uint quanity,\n        uint availableTickets,\n        address payable owner,\n        bool purchased\n    );\n\n    event TicketPurchased(\n        uint id,\n        string name,\n        uint price,\n        uint quanity,\n        address payable owner,\n        bool purchased\n    );\n\n    event EventCreated (\n        uint id,\n        string name,\n        uint price,\n        string startDate,\n        string location,\n        string description,\n        uint quanity,\n        address payable owner\n    );\n\n    event EventTicketPurchased(\n        uint id,\n        uint ticketId,\n        string name,\n        uint price,\n        uint quanity,\n        address payable owner,\n        bool soldout\n    );\n\n    constructor() public {\n        name = \"Marketplace\";\n    }\n\n    function eventCreated(string memory _name, uint _price, string memory _startDate, string memory _location, string memory _description, uint _quanity) public {\n        //Require a valid name\n        require(bytes(_name).length > 0);\n        // Reuire a valid price\n        require(_price > 0);\n        //Require a start date\n        require(bytes(_startDate).length > 0);\n        //Require a location\n        require(bytes(_location).length > 0);\n        // Require a quanity\n        require(_quanity > 0);\n\n        eventCount ++;\n\n        events[eventCount] = Event(eventCount, _name, _price, _startDate, _location, _description, _quanity, msg.sender, false);\n\n        emit EventCreated(eventCount, _name, _price, _startDate, _location, _description, _quanity, msg.sender);\n\n    }\n\n    function purchaseEventTicket(uint _id, uint _quantity) public payable {\n        // Fetch the product\n        Event memory _event = events[_id];\n        // Fetch the owner\n        address payable _seller = _event.owner;\n        // Require that there is enough Ether in the transaction\n        require(msg.value >= _event.price);\n        // Require that the ticket has not been purchased already\n        require(msg.value >= (_event.price) * (_quantity), \"not enough money sent\");\n        // Require that the buyer is not the seller\n        require(_seller != msg.sender);\n        // Transfer ownership to the buyer\n        require(availableEventTickets >= _quantity, \"not enough ticket quantity available\");\n\n        uint _ticketId;\n\n        for(uint8 i = 0; i < _quantity; i++) {\n            _ticketId++;\n            _quantity--;\n        }\n        _event.owner = msg.sender;\n        // Mark as soldout\n        if(_quantity == 0){\n        _event.soldout = true;\n        }\n        // Update the ticket\n        events[_id] = _event;\n        // Pay the seller by sending them Ether\n        address(_seller).transfer(msg.value);\n        //Trigger an event\n         emit EventTicketPurchased(eventCount, _ticketId, _event.name, _event.price, _event.quanity, msg.sender,_event.soldout);\n    }\n\n    function addTicket(string memory _name, uint _price, string memory _startDate, string memory _location, string memory _description, uint _quanity, uint _availableTickets) public {\n        //Require a valid name\n        require(bytes(_name).length > 0);\n        // Reuire a valid price\n        require(_price > 0);\n        //Require a start date\n        require(bytes(_startDate).length > 0);\n        //Require a location\n        require(bytes(_location).length > 0);\n        //Require a description\n        require(bytes(_description).length > 0);\n        //Require a quanity \n        require(_quanity > 0);\n        //\n        // Make sure parameters are correct\n        // Increment Ticket count\n        _quanity = availableTickets;\n        ticketCount ++;\n        //\n        //Create the ticket\n        tickets[ticketCount] = Ticket(ticketCount, _name, _price, _startDate, _location, _description, _quanity, _availableTickets, msg.sender, false);\n        //Trigger an event\n        emit AddTicket(ticketCount, _name, _price, _startDate, _location, _description, _quanity, _availableTickets, msg.sender, false);\n    }\n\n    function purchaseTicket(uint _id, uint _quantity) public payable {\n        // Fetch the product\n        Ticket memory _ticket = tickets[_id];\n        // Fetch the owner\n        address payable _seller = _ticket.owner;\n        // Make sure the ticket has a valid id\n        require(_ticket.id > 0 && _ticket.id <= ticketCount);\n        // Require that there is enough Ether in the transaction\n        require(msg.value >= (_ticket.price) * (_quantity), \"not enough money sent\");\n        // Require that the ticket has not been purchased already\n        require(!_ticket.purchased);\n        // Require that the buyer is not the seller\n        require(_seller != msg.sender);\n        // Transfer ownership to the buyer\n        require(availableTickets >= _quantity, \"not enough ticket quantity available\");\n\n        for(uint8 i = 0; i < _quantity; i++) {\n            availableTickets--;\n        }\n        _ticket.owner = msg.sender;\n        // Mark as purchased\n        _ticket.purchased = true;\n        // Update the ticket\n        tickets[_id] = _ticket;\n        // Pay the seller by sending them Ether\n        address(_seller).transfer(msg.value);\n        //Trigger an event\n         emit TicketPurchased(ticketCount, _ticket.name, _ticket.price, _ticket.quanity, msg.sender, true);\n    }\n}",
  "sourcePath": "C:/Users/TJ/Desktop/UCSD_Bootcamp/Homework/Ticket_Bits/client/src/contracts/Marketplace.sol",
  "compiler": {
    "name": "solc",
    "version": "0.5.16+commit.9c3226ce.Emscripten.clang"
  },
  "schemaVersion": "3.3.4",
  "updatedAt": "2021-03-21T02:53:46.955Z",
  "networkType": "ethereum",
  "devdoc": {
    "methods": {}
  },
  "userdoc": {
    "methods": {}
  }
}