{
  "contractName": "Marketplace",
  "abi": [
    {
      "constant": true,
      "inputs": [],
      "name": "name",
      "outputs": [
        {
          "name": "",
          "type": "string"
        }
      ],
      "payable": false,
      "stateMutability": "view",
      "type": "function"
    },
    {
      "constant": true,
      "inputs": [
        {
          "name": "",
          "type": "uint256"
        }
      ],
      "name": "tickets",
      "outputs": [
        {
          "name": "id",
          "type": "uint256"
        },
        {
          "name": "name",
          "type": "string"
        },
        {
          "name": "price",
          "type": "uint256"
        },
        {
          "name": "owner",
          "type": "address"
        },
        {
          "name": "purchased",
          "type": "bool"
        }
      ],
      "payable": false,
      "stateMutability": "view",
      "type": "function"
    },
    {
      "constant": true,
      "inputs": [],
      "name": "ticketCount",
      "outputs": [
        {
          "name": "",
          "type": "uint256"
        }
      ],
      "payable": false,
      "stateMutability": "view",
      "type": "function"
    },
    {
      "inputs": [],
      "payable": false,
      "stateMutability": "nonpayable",
      "type": "constructor"
    },
    {
      "anonymous": false,
      "inputs": [
        {
          "indexed": false,
          "name": "id",
          "type": "uint256"
        },
        {
          "indexed": false,
          "name": "name",
          "type": "string"
        },
        {
          "indexed": false,
          "name": "price",
          "type": "uint256"
        },
        {
          "indexed": false,
          "name": "owner",
          "type": "address"
        },
        {
          "indexed": false,
          "name": "purchased",
          "type": "bool"
        }
      ],
      "name": "TicketCreated",
      "type": "event"
    },
    {
      "anonymous": false,
      "inputs": [
        {
          "indexed": false,
          "name": "id",
          "type": "uint256"
        },
        {
          "indexed": false,
          "name": "name",
          "type": "string"
        },
        {
          "indexed": false,
          "name": "price",
          "type": "uint256"
        },
        {
          "indexed": false,
          "name": "owner",
          "type": "address"
        },
        {
          "indexed": false,
          "name": "purchased",
          "type": "bool"
        }
      ],
      "name": "TicketPurchased",
      "type": "event"
    },
    {
      "constant": false,
      "inputs": [
        {
          "name": "_name",
          "type": "string"
        },
        {
          "name": "_price",
          "type": "uint256"
        }
      ],
      "name": "createTicket",
      "outputs": [],
      "payable": false,
      "stateMutability": "nonpayable",
      "type": "function"
    },
    {
      "constant": false,
      "inputs": [
        {
          "name": "_id",
          "type": "uint256"
        }
      ],
      "name": "purchaseTicket",
      "outputs": [],
      "payable": true,
      "stateMutability": "payable",
      "type": "function"
    }
  ],
  "bytecode": "0x6080604052600060015534801561001557600080fd5b506040805190810160405280600b81526020017f4d61726b6574706c61636500000000000000000000000000000000000000000081525060009080519060200190610061929190610067565b5061010c565b828054600181600116156101000203166002900490600052602060002090601f016020900481019282601f106100a857805160ff19168380011785556100d6565b828001600101855582156100d6579182015b828111156100d55782518255916020019190600101906100ba565b5b5090506100e391906100e7565b5090565b61010991905b808211156101055760008160009055506001016100ed565b5090565b90565b610c148061011b6000396000f3fe60806040526004361061006d576000357c0100000000000000000000000000000000000000000000000000000000900463ffffffff16806306fdde031461007257806350b44712146101025780638729004f14610202578063b948348c146102d4578063cfbd900f14610302575b600080fd5b34801561007e57600080fd5b5061008761032d565b6040518080602001828103825283818151815260200191508051906020019080838360005b838110156100c75780820151818401526020810190506100ac565b50505050905090810190601f1680156100f45780820380516001836020036101000a031916815260200191505b509250505060405180910390f35b34801561010e57600080fd5b5061013b6004803603602081101561012557600080fd5b81019080803590602001909291905050506103cb565b60405180868152602001806020018581526020018473ffffffffffffffffffffffffffffffffffffffff1673ffffffffffffffffffffffffffffffffffffffff16815260200183151515158152602001828103825286818151815260200191508051906020019080838360005b838110156101c35780820151818401526020810190506101a8565b50505050905090810190601f1680156101f05780820380516001836020036101000a031916815260200191505b50965050505050505060405180910390f35b34801561020e57600080fd5b506102d26004803603604081101561022557600080fd5b810190808035906020019064010000000081111561024257600080fd5b82018360208201111561025457600080fd5b8035906020019184600183028401116401000000008311171561027657600080fd5b91908080601f016020809104026020016040519081016040528093929190818152602001838380828437600081840152601f19601f820116905080830192505050505050509192919290803590602001909291905050506104c6565b005b610300600480360360208110156102ea57600080fd5b81019080803590602001909291905050506106dd565b005b34801561030e57600080fd5b50610317610af5565b6040518082815260200191505060405180910390f35b60008054600181600116156101000203166002900480601f0160208091040260200160405190810160405280929190818152602001828054600181600116156101000203166002900480156103c35780601f10610398576101008083540402835291602001916103c3565b820191906000526020600020905b8154815290600101906020018083116103a657829003601f168201915b505050505081565b6002602052806000526040600020600091509050806000015490806001018054600181600116156101000203166002900480601f01602080910402602001604051908101604052809291908181526020018280546001816001161561010002031660029004801561047d5780601f106104525761010080835404028352916020019161047d565b820191906000526020600020905b81548152906001019060200180831161046057829003601f168201915b5050505050908060020154908060030160009054906101000a900473ffffffffffffffffffffffffffffffffffffffff16908060030160149054906101000a900460ff16905085565b600082511115156104d657600080fd5b6000811115156104e557600080fd5b60016000815480929190600101919050555060a06040519081016040528060015481526020018381526020018281526020013373ffffffffffffffffffffffffffffffffffffffff16815260200160001515815250600260006001548152602001908152602001600020600082015181600001556020820151816001019080519060200190610575929190610afb565b506040820151816002015560608201518160030160006101000a81548173ffffffffffffffffffffffffffffffffffffffff021916908373ffffffffffffffffffffffffffffffffffffffff16021790555060808201518160030160146101000a81548160ff0219169083151502179055509050507f3a854926d43a1e6ec8282ce69491495e364deed9b1a772fe926074a7fea48cf2600154838333600060405180868152602001806020018581526020018473ffffffffffffffffffffffffffffffffffffffff1673ffffffffffffffffffffffffffffffffffffffff16815260200183151515158152602001828103825286818151815260200191508051906020019080838360005b8381101561069b578082015181840152602081019050610680565b50505050905090810190601f1680156106c85780820380516001836020036101000a031916815260200191505b50965050505050505060405180910390a15050565b6106e5610b7b565b6002600083815260200190815260200160002060a0604051908101604052908160008201548152602001600182018054600181600116156101000203166002900480601f0160208091040260200160405190810160405280929190818152602001828054600181600116156101000203166002900480156107a75780601f1061077c576101008083540402835291602001916107a7565b820191906000526020600020905b81548152906001019060200180831161078a57829003601f168201915b50505050508152602001600282015481526020016003820160009054906101000a900473ffffffffffffffffffffffffffffffffffffffff1673ffffffffffffffffffffffffffffffffffffffff1673ffffffffffffffffffffffffffffffffffffffff1681526020016003820160149054906101000a900460ff1615151515815250509050600081606001519050600082600001511180156108505750600154826000015111155b151561085b57600080fd5b8160400151341015151561086e57600080fd5b816080015115151561087f57600080fd5b3373ffffffffffffffffffffffffffffffffffffffff168173ffffffffffffffffffffffffffffffffffffffff16141515156108ba57600080fd5b33826060019073ffffffffffffffffffffffffffffffffffffffff16908173ffffffffffffffffffffffffffffffffffffffff16815250506001826080019015159081151581525050816002600085815260200190815260200160002060008201518160000155602082015181600101908051906020019061093d929190610afb565b506040820151816002015560608201518160030160006101000a81548173ffffffffffffffffffffffffffffffffffffffff021916908373ffffffffffffffffffffffffffffffffffffffff16021790555060808201518160030160146101000a81548160ff0219169083151502179055509050508073ffffffffffffffffffffffffffffffffffffffff166108fc349081150290604051600060405180830381858888f193505050501580156109f8573d6000803e3d6000fd5b507f41c80b3d71e719952a8d8021af4506f2bbd92c2c26ee6f272d07f4bc6c045fc96001548360200151846040015133600160405180868152602001806020018581526020018473ffffffffffffffffffffffffffffffffffffffff1673ffffffffffffffffffffffffffffffffffffffff16815260200183151515158152602001828103825286818151815260200191508051906020019080838360005b83811015610ab2578082015181840152602081019050610a97565b50505050905090810190601f168015610adf5780820380516001836020036101000a031916815260200191505b50965050505050505060405180910390a1505050565b60015481565b828054600181600116156101000203166002900490600052602060002090601f016020900481019282601f10610b3c57805160ff1916838001178555610b6a565b82800160010185558215610b6a579182015b82811115610b69578251825591602001919060010190610b4e565b5b509050610b779190610bc3565b5090565b60a060405190810160405280600081526020016060815260200160008152602001600073ffffffffffffffffffffffffffffffffffffffff1681526020016000151581525090565b610be591905b80821115610be1576000816000905550600101610bc9565b5090565b9056fea165627a7a72305820f4eb9c9ba3ecb0062c4dd794657b73e0baca4c2b0fb294dc647b980ddf9e6a520029",
  "source": "// SPDX-License-Identifier: MIT\npragma solidity ^0.5.0;\n\n\ncontract Marketplace {\n    string public name;\n    uint256 public ticketCount = 0;\n    mapping(uint256 => Ticket) public tickets;\n\n    struct Ticket {\n        uint256 id;\n        string name;\n        uint256 price;\n        address payable owner;\n        bool purchased;\n    }\n\n    event TicketCreated(\n        uint256 id,\n        string name,\n        uint256 price,\n        address payable owner,\n        bool purchased\n    );\n\n    event TicketPurchased(\n        uint256 id,\n        string name,\n        uint256 price,\n        address payable owner,\n        bool purchased\n    );\n\n    constructor() public {\n        name = \"Marketplace\";\n    }\n\n    function createTicket(string memory _name, uint256 _price) public {\n        //Require a valid name\n        require(bytes(_name).length > 0);\n        // Reuire a valid price\n        require(_price > 0);\n        // Make sure parameters are correct\n        // Increment Ticket count\n        ticketCount++;\n        //Create the ticket\n        tickets[ticketCount] = Ticket(\n            ticketCount,\n            _name,\n            _price,\n            msg.sender,\n            false\n        );\n        //Trigger an event\n        emit TicketCreated(ticketCount, _name, _price, msg.sender, false);\n    }\n\n    function purchaseTicket(uint256 _id) public payable {\n        // Fetch the product\n        Ticket memory _ticket = tickets[_id];\n        // Fetch the owner\n        address payable _seller = _ticket.owner;\n        // Make sure the ticket has a valid id\n        require(_ticket.id > 0 && _ticket.id <= ticketCount);\n        // Require that there is enough Ether in the transaction\n        require(msg.value >= _ticket.price);\n        // Require that the ticket has not been purchased already\n        require(!_ticket.purchased);\n        // Require that the buyer is not the seller\n        require(_seller != msg.sender);\n        // Transfer ownership to the buyer\n        _ticket.owner = msg.sender;\n        // Mark as purchased\n        _ticket.purchased = true;\n        // Update the product\n        tickets[_id] = _ticket;\n        // Pay the seller by sending them Ether\n        address(_seller).transfer(msg.value);\n        //Trigger an event\n        emit TicketPurchased(\n            ticketCount,\n            _ticket.name,\n            _ticket.price,\n            msg.sender,\n            true\n        );\n    }\n}",
  "sourcePath": "C:/Users/TJ/Desktop/UCSD_Bootcamp/Homework/Ticket_Bits/client/src/contracts/Marketplace.sol",
  "compiler": {
    "name": "solc",
    "version": "0.5.0+commit.1d4f565a.Emscripten.clang"
  },
  "schemaVersion": "3.3.4",
  "updatedAt": "2021-03-21T03:25:22.346Z",
  "networkType": "ethereum",
  "devdoc": {
    "methods": {}
  },
  "userdoc": {
    "methods": {}
  }
}